{
  "_format": "hh-sol-artifact-1",
  "contractName": "StableCoin",
  "sourceName": "contracts/StableCoin.sol",
  "abi": [
    {
      "inputs": [
        {
          "internalType": "string",
          "name": "name",
          "type": "string"
        },
        {
          "internalType": "string",
          "name": "symbol",
          "type": "string"
        },
        {
          "internalType": "uint8",
          "name": "decimals",
          "type": "uint8"
        }
      ],
      "stateMutability": "nonpayable",
      "type": "constructor"
    },
    {
      "anonymous": false,
      "inputs": [
        {
          "indexed": true,
          "internalType": "address[]",
          "name": "accounts",
          "type": "address[]"
        }
      ],
      "name": "AddedToWhitelist",
      "type": "event"
    },
    {
      "anonymous": false,
      "inputs": [
        {
          "indexed": true,
          "internalType": "address",
          "name": "owner",
          "type": "address"
        },
        {
          "indexed": true,
          "internalType": "address",
          "name": "spender",
          "type": "address"
        },
        {
          "indexed": false,
          "internalType": "uint256",
          "name": "value",
          "type": "uint256"
        }
      ],
      "name": "Approval",
      "type": "event"
    },
    {
      "anonymous": false,
      "inputs": [
        {
          "indexed": true,
          "internalType": "address",
          "name": "previousOwner",
          "type": "address"
        },
        {
          "indexed": true,
          "internalType": "address",
          "name": "newOwner",
          "type": "address"
        }
      ],
      "name": "OwnershipTransferred",
      "type": "event"
    },
    {
      "anonymous": false,
      "inputs": [
        {
          "indexed": false,
          "internalType": "address",
          "name": "account",
          "type": "address"
        }
      ],
      "name": "Paused",
      "type": "event"
    },
    {
      "anonymous": false,
      "inputs": [
        {
          "indexed": true,
          "internalType": "address",
          "name": "account",
          "type": "address"
        }
      ],
      "name": "RemovedFromWhitelist",
      "type": "event"
    },
    {
      "anonymous": false,
      "inputs": [
        {
          "indexed": true,
          "internalType": "address",
          "name": "from",
          "type": "address"
        },
        {
          "indexed": true,
          "internalType": "address",
          "name": "to",
          "type": "address"
        },
        {
          "indexed": false,
          "internalType": "uint256",
          "name": "value",
          "type": "uint256"
        }
      ],
      "name": "Transfer",
      "type": "event"
    },
    {
      "anonymous": false,
      "inputs": [
        {
          "indexed": false,
          "internalType": "address",
          "name": "account",
          "type": "address"
        }
      ],
      "name": "Unpaused",
      "type": "event"
    },
    {
      "inputs": [
        {
          "internalType": "address[]",
          "name": "_addresses",
          "type": "address[]"
        }
      ],
      "name": "addWhite",
      "outputs": [],
      "stateMutability": "nonpayable",
      "type": "function"
    },
    {
      "inputs": [
        {
          "internalType": "address",
          "name": "owner",
          "type": "address"
        },
        {
          "internalType": "address",
          "name": "spender",
          "type": "address"
        }
      ],
      "name": "allowance",
      "outputs": [
        {
          "internalType": "uint256",
          "name": "",
          "type": "uint256"
        }
      ],
      "stateMutability": "view",
      "type": "function"
    },
    {
      "inputs": [
        {
          "internalType": "address",
          "name": "spender",
          "type": "address"
        },
        {
          "internalType": "uint256",
          "name": "amount",
          "type": "uint256"
        }
      ],
      "name": "approve",
      "outputs": [
        {
          "internalType": "bool",
          "name": "",
          "type": "bool"
        }
      ],
      "stateMutability": "nonpayable",
      "type": "function"
    },
    {
      "inputs": [
        {
          "internalType": "address",
          "name": "account",
          "type": "address"
        }
      ],
      "name": "balanceOf",
      "outputs": [
        {
          "internalType": "uint256",
          "name": "",
          "type": "uint256"
        }
      ],
      "stateMutability": "view",
      "type": "function"
    },
    {
      "inputs": [
        {
          "internalType": "address",
          "name": "account",
          "type": "address"
        },
        {
          "internalType": "uint256",
          "name": "amount",
          "type": "uint256"
        }
      ],
      "name": "burn",
      "outputs": [],
      "stateMutability": "nonpayable",
      "type": "function"
    },
    {
      "inputs": [],
      "name": "decimals",
      "outputs": [
        {
          "internalType": "uint8",
          "name": "",
          "type": "uint8"
        }
      ],
      "stateMutability": "view",
      "type": "function"
    },
    {
      "inputs": [
        {
          "internalType": "address",
          "name": "spender",
          "type": "address"
        },
        {
          "internalType": "uint256",
          "name": "subtractedValue",
          "type": "uint256"
        }
      ],
      "name": "decreaseAllowance",
      "outputs": [
        {
          "internalType": "bool",
          "name": "",
          "type": "bool"
        }
      ],
      "stateMutability": "nonpayable",
      "type": "function"
    },
    {
      "inputs": [],
      "name": "getWhitelistedAddresses",
      "outputs": [
        {
          "internalType": "address[]",
          "name": "",
          "type": "address[]"
        }
      ],
      "stateMutability": "view",
      "type": "function"
    },
    {
      "inputs": [
        {
          "internalType": "address",
          "name": "spender",
          "type": "address"
        },
        {
          "internalType": "uint256",
          "name": "addedValue",
          "type": "uint256"
        }
      ],
      "name": "increaseAllowance",
      "outputs": [
        {
          "internalType": "bool",
          "name": "",
          "type": "bool"
        }
      ],
      "stateMutability": "nonpayable",
      "type": "function"
    },
    {
      "inputs": [
        {
          "internalType": "address",
          "name": "_address",
          "type": "address"
        }
      ],
      "name": "isWhitelisted",
      "outputs": [
        {
          "internalType": "bool",
          "name": "",
          "type": "bool"
        }
      ],
      "stateMutability": "view",
      "type": "function"
    },
    {
      "inputs": [
        {
          "internalType": "address",
          "name": "account",
          "type": "address"
        },
        {
          "internalType": "uint256",
          "name": "amount",
          "type": "uint256"
        }
      ],
      "name": "mint",
      "outputs": [],
      "stateMutability": "nonpayable",
      "type": "function"
    },
    {
      "inputs": [],
      "name": "name",
      "outputs": [
        {
          "internalType": "string",
          "name": "",
          "type": "string"
        }
      ],
      "stateMutability": "view",
      "type": "function"
    },
    {
      "inputs": [],
      "name": "owner",
      "outputs": [
        {
          "internalType": "address",
          "name": "",
          "type": "address"
        }
      ],
      "stateMutability": "view",
      "type": "function"
    },
    {
      "inputs": [],
      "name": "pause",
      "outputs": [],
      "stateMutability": "nonpayable",
      "type": "function"
    },
    {
      "inputs": [],
      "name": "paused",
      "outputs": [
        {
          "internalType": "bool",
          "name": "",
          "type": "bool"
        }
      ],
      "stateMutability": "view",
      "type": "function"
    },
    {
      "inputs": [
        {
          "internalType": "address",
          "name": "_address",
          "type": "address"
        },
        {
          "internalType": "uint256",
          "name": "_index",
          "type": "uint256"
        }
      ],
      "name": "removeWhite",
      "outputs": [],
      "stateMutability": "nonpayable",
      "type": "function"
    },
    {
      "inputs": [],
      "name": "renounceOwnership",
      "outputs": [],
      "stateMutability": "nonpayable",
      "type": "function"
    },
    {
      "inputs": [],
      "name": "symbol",
      "outputs": [
        {
          "internalType": "string",
          "name": "",
          "type": "string"
        }
      ],
      "stateMutability": "view",
      "type": "function"
    },
    {
      "inputs": [],
      "name": "totalSupply",
      "outputs": [
        {
          "internalType": "uint256",
          "name": "",
          "type": "uint256"
        }
      ],
      "stateMutability": "view",
      "type": "function"
    },
    {
      "inputs": [
        {
          "internalType": "address",
          "name": "recipient",
          "type": "address"
        },
        {
          "internalType": "uint256",
          "name": "amount",
          "type": "uint256"
        }
      ],
      "name": "transfer",
      "outputs": [
        {
          "internalType": "bool",
          "name": "",
          "type": "bool"
        }
      ],
      "stateMutability": "nonpayable",
      "type": "function"
    },
    {
      "inputs": [
        {
          "internalType": "address",
          "name": "sender",
          "type": "address"
        },
        {
          "internalType": "address",
          "name": "recipient",
          "type": "address"
        },
        {
          "internalType": "uint256",
          "name": "amount",
          "type": "uint256"
        }
      ],
      "name": "transferFrom",
      "outputs": [
        {
          "internalType": "bool",
          "name": "",
          "type": "bool"
        }
      ],
      "stateMutability": "nonpayable",
      "type": "function"
    },
    {
      "inputs": [
        {
          "internalType": "address",
          "name": "newOwner",
          "type": "address"
        }
      ],
      "name": "transferOwnership",
      "outputs": [],
      "stateMutability": "nonpayable",
      "type": "function"
    },
    {
      "inputs": [],
      "name": "unpause",
      "outputs": [],
      "stateMutability": "nonpayable",
      "type": "function"
    },
    {
      "inputs": [
        {
          "internalType": "address",
          "name": "",
          "type": "address"
        }
      ],
      "name": "whitelist",
      "outputs": [
        {
          "internalType": "bool",
          "name": "",
          "type": "bool"
        }
      ],
      "stateMutability": "view",
      "type": "function"
    },
    {
      "inputs": [
        {
          "internalType": "uint256",
          "name": "",
          "type": "uint256"
        }
      ],
      "name": "whitelistedAddresses",
      "outputs": [
        {
          "internalType": "address",
          "name": "",
          "type": "address"
        }
      ],
      "stateMutability": "view",
      "type": "function"
    }
  ],
  "bytecode": "0x60806040523480156200001157600080fd5b5060405162001c8738038062001c87833981810160405260608110156200003757600080fd5b81019080805160405193929190846401000000008211156200005857600080fd5b9083019060208201858111156200006e57600080fd5b82516401000000008111828201881017156200008957600080fd5b82525081516020918201929091019080838360005b83811015620000b85781810151838201526020016200009e565b50505050905090810190601f168015620000e65780820380516001836020036101000a031916815260200191505b50604052602001805160405193929190846401000000008211156200010a57600080fd5b9083019060208201858111156200012057600080fd5b82516401000000008111828201881017156200013b57600080fd5b82525081516020918201929091019080838360005b838110156200016a57818101518382015260200162000150565b50505050905090810190601f168015620001985780820380516001836020036101000a031916815260200191505b5060405260209081015185519093508592508491620001bd9160039185019062000300565b508051620001d390600490602084019062000300565b50506005805461ff001960ff19909116601217169055506000620001f6620002d1565b6005805462010000600160b01b031916620100006001600160a01b03841690810291909117909155604051919250906000907f8be0079c531659141344cd1fd0a4f28419497f9722a3daafe3b4186f6b6457e0908290a350604051806020016040528062000269620002d560201b60201c565b6001600160a01b031690526200028490600790600162000385565b5060016006600062000295620002d5565b6001600160a01b031681526020810191909152604001600020805460ff1916911515919091179055620002c881620002ea565b50505062000423565b3390565b6005546201000090046001600160a01b031690565b6005805460ff191660ff92909216919091179055565b828054600181600116156101000203166002900490600052602060002090601f016020900481019282601f106200034357805160ff191683800117855562000373565b8280016001018555821562000373579182015b828111156200037357825182559160200191906001019062000356565b5062000381929150620003eb565b5090565b828054828255906000526020600020908101928215620003dd579160200282015b82811115620003dd57825182546001600160a01b0319166001600160a01b03909116178255602090920191600190910190620003a6565b506200038192915062000402565b5b80821115620003815760008155600101620003ec565b5b80821115620003815780546001600160a01b031916815560010162000403565b61185480620004336000396000f3fe608060405234801561001057600080fd5b50600436106101735760003560e01c80636d028027116100de5780639b19251a11610097578063a9059cbb11610071578063a9059cbb1461053a578063ba4e5c4914610566578063dd62ed3e14610583578063f2fde38b146105b157610173565b80639b19251a146104bc5780639dc29fac146104e2578063a457c2d71461050e57610173565b80636d0280271461040257806370a082311461045a578063715018a6146104805780638456cb59146104885780638da5cb5b1461049057806395d89b41146104b457610173565b80633950935111610130578063395093511461034857806339703c68146103745780633af32abf146103a05780633f4ba83a146103c657806340c10f19146103ce5780635c975abb146103fa57610173565b806306fdde0314610178578063095ea7b3146101f557806318160ddd1461023557806323b872dd1461024f578063313ce567146102855780633478d03a146102a3575b600080fd5b6101806105d7565b6040805160208082528351818301528351919283929083019185019080838360005b838110156101ba5781810151838201526020016101a2565b50505050905090810190601f1680156101e75780820380516001836020036101000a031916815260200191505b509250505060405180910390f35b6102216004803603604081101561020b57600080fd5b506001600160a01b03813516906020013561066d565b604080519115158252519081900360200190f35b61023d61068a565b60408051918252519081900360200190f35b6102216004803603606081101561026557600080fd5b506001600160a01b03813581169160208101359091169060400135610690565b61028d610717565b6040805160ff9092168252519081900360200190f35b610346600480360360208110156102b957600080fd5b8101906020810181356401000000008111156102d457600080fd5b8201836020820111156102e657600080fd5b8035906020019184602083028401116401000000008311171561030857600080fd5b919080806020026020016040519081016040528093929190818152602001838360200280828437600092019190915250929550610720945050505050565b005b6102216004803603604081101561035e57600080fd5b506001600160a01b0381351690602001356108e5565b6103466004803603604081101561038a57600080fd5b506001600160a01b038135169060200135610933565b610221600480360360208110156103b657600080fd5b50356001600160a01b0316610a40565b610346610a5e565b610346600480360360408110156103e457600080fd5b506001600160a01b038135169060200135610ab5565b610221610b10565b61040a610b1e565b60408051602080825283518183015283519192839290830191858101910280838360005b8381101561044657818101518382015260200161042e565b505050509050019250505060405180910390f35b61023d6004803603602081101561047057600080fd5b50356001600160a01b0316610b7f565b610346610b9a565b610346610c4e565b610498610ca3565b604080516001600160a01b039092168252519081900360200190f35b610180610cb8565b610221600480360360208110156104d257600080fd5b50356001600160a01b0316610d19565b610346600480360360408110156104f857600080fd5b506001600160a01b038135169060200135610d2e565b6102216004803603604081101561052457600080fd5b506001600160a01b038135169060200135610d85565b6102216004803603604081101561055057600080fd5b506001600160a01b038135169060200135610ded565b6104986004803603602081101561057c57600080fd5b5035610e01565b61023d6004803603604081101561059957600080fd5b506001600160a01b0381358116916020013516610e28565b610346600480360360208110156105c757600080fd5b50356001600160a01b0316610e53565b60038054604080516020601f60026000196101006001881615020190951694909404938401819004810282018101909252828152606093909290918301828280156106635780601f1061063857610100808354040283529160200191610663565b820191906000526020600020905b81548152906001019060200180831161064657829003601f168201915b5050505050905090565b600061068161067a610f64565b8484610f68565b50600192915050565b60025490565b600061069d848484611054565b61070d846106a9610f64565b6107088560405180606001604052806028815260200161171e602891396001600160a01b038a166000908152600160205260408120906106e7610f64565b6001600160a01b0316815260208101919091526040016000205491906111af565b610f68565b5060019392505050565b60055460ff1690565b610728610f64565b6001600160a01b0316610739610ca3565b6001600160a01b031614610782576040805162461bcd60e51b81526020600482018190526024820152600080516020611746833981519152604482015290519081900360640190fd5b60005b8151811015610878576006600083838151811061079e57fe5b6020908102919091018101516001600160a01b031682528101919091526040016000205460ff161515600114156107d457600080fd5b6001600660008484815181106107e657fe5b60200260200101516001600160a01b03166001600160a01b0316815260200190815260200160002060006101000a81548160ff021916908315150217905550600782828151811061083357fe5b60209081029190910181015182546001808201855560009485529290932090920180546001600160a01b0319166001600160a01b039093169290921790915501610785565b508060405180828051906020019060200280838360005b838110156108a757818101518382015260200161088f565b505060405194909201849003842095507fe3c5086a518f78e8aa61952bb9c28a9a0f0022707e537ea961faa918e0d89f6f945060009392505050a250565b60006106816108f2610f64565b846107088560016000610903610f64565b6001600160a01b03908116825260208083019390935260409182016000908120918c168152925290205490611246565b61093b610f64565b6001600160a01b031661094c610ca3565b6001600160a01b031614610995576040805162461bcd60e51b81526020600482018190526024820152600080516020611746833981519152604482015290519081900360640190fd5b600781815481106109a257fe5b6000918252602090912001546001600160a01b038381169116146109c557600080fd5b6001600160a01b0382166000908152600660205260409020805460ff1916905560078054829081106109f357fe5b6000918252602082200180546001600160a01b03191690556040516001600160a01b038416917fcdd2e9b91a56913d370075169cefa1602ba36be5301664f752192bb1709df75791a25050565b6001600160a01b031660009081526006602052604090205460ff1690565b610a6733610a40565b610aab576040805162461bcd60e51b815260206004820152601060248201526f1b9bdd081a5b881dda1a5d195b1a5cdd60821b604482015290519081900360640190fd5b610ab36112a7565b565b610abe33610a40565b610b02576040805162461bcd60e51b815260206004820152601060248201526f1b9bdd081a5b881dda1a5d195b1a5cdd60821b604482015290519081900360640190fd5b610b0c8282611348565b5050565b600554610100900460ff1690565b6060600780548060200260200160405190810160405280929190818152602001828054801561066357602002820191906000526020600020905b81546001600160a01b03168152600190910190602001808311610b58575050505050905090565b6001600160a01b031660009081526020819052604090205490565b610ba2610f64565b6001600160a01b0316610bb3610ca3565b6001600160a01b031614610bfc576040805162461bcd60e51b81526020600482018190526024820152600080516020611746833981519152604482015290519081900360640190fd5b6005546040516000916201000090046001600160a01b0316907f8be0079c531659141344cd1fd0a4f28419497f9722a3daafe3b4186f6b6457e0908390a36005805462010000600160b01b0319169055565b610c5733610a40565b610c9b576040805162461bcd60e51b815260206004820152601060248201526f1b9bdd081a5b881dda1a5d195b1a5cdd60821b604482015290519081900360640190fd5b610ab3611438565b6005546201000090046001600160a01b031690565b60048054604080516020601f60026000196101006001881615020190951694909404938401819004810282018101909252828152606093909290918301828280156106635780601f1061063857610100808354040283529160200191610663565b60066020526000908152604090205460ff1681565b610d3733610a40565b610d7b576040805162461bcd60e51b815260206004820152601060248201526f1b9bdd081a5b881dda1a5d195b1a5cdd60821b604482015290519081900360640190fd5b610b0c82826114bd565b6000610681610d92610f64565b84610708856040518060600160405280602581526020016117d06025913960016000610dbc610f64565b6001600160a01b03908116825260208083019390935260409182016000908120918d168152925290205491906111af565b6000610681610dfa610f64565b8484611054565b60078181548110610e0e57fe5b6000918252602090912001546001600160a01b0316905081565b6001600160a01b03918216600090815260016020908152604080832093909416825291909152205490565b610e5b610f64565b6001600160a01b0316610e6c610ca3565b6001600160a01b031614610eb5576040805162461bcd60e51b81526020600482018190526024820152600080516020611746833981519152604482015290519081900360640190fd5b6001600160a01b038116610efa5760405162461bcd60e51b81526004018080602001828103825260268152602001806116b06026913960400191505060405180910390fd5b6005546040516001600160a01b038084169262010000900416907f8be0079c531659141344cd1fd0a4f28419497f9722a3daafe3b4186f6b6457e090600090a3600580546001600160a01b03909216620100000262010000600160b01b0319909216919091179055565b3390565b6001600160a01b038316610fad5760405162461bcd60e51b81526004018080602001828103825260248152602001806117ac6024913960400191505060405180910390fd5b6001600160a01b038216610ff25760405162461bcd60e51b81526004018080602001828103825260228152602001806116d66022913960400191505060405180910390fd5b6001600160a01b03808416600081815260016020908152604080832094871680845294825291829020859055815185815291517f8c5be1e5ebec7d5bd14f71427d1e84f3dd0314c0f7b2291e5b200ac8c7c3b9259281900390910190a3505050565b6001600160a01b0383166110995760405162461bcd60e51b81526004018080602001828103825260258152602001806117876025913960400191505060405180910390fd5b6001600160a01b0382166110de5760405162461bcd60e51b815260040180806020018281038252602381526020018061166b6023913960400191505060405180910390fd5b6110e98383836115b9565b611126816040518060600160405280602681526020016116f8602691396001600160a01b03861660009081526020819052604090205491906111af565b6001600160a01b0380851660009081526020819052604080822093909355908416815220546111559082611246565b6001600160a01b038084166000818152602081815260409182902094909455805185815290519193928716927fddf252ad1be2c89b69c2b068fc378daa952ba7f163c4a11628f55a4df523b3ef92918290030190a3505050565b6000818484111561123e5760405162461bcd60e51b81526004018080602001828103825283818151815260200191508051906020019080838360005b838110156112035781810151838201526020016111eb565b50505050905090810190601f1680156112305780820380516001836020036101000a031916815260200191505b509250505060405180910390fd5b505050900390565b6000828201838110156112a0576040805162461bcd60e51b815260206004820152601b60248201527f536166654d6174683a206164646974696f6e206f766572666c6f770000000000604482015290519081900360640190fd5b9392505050565b6112af610b10565b6112f7576040805162461bcd60e51b815260206004820152601460248201527314185d5cd8589b194e881b9bdd081c185d5cd95960621b604482015290519081900360640190fd5b6005805461ff00191690557f5db9ee0a495bf2e6ff9c91a7834c1ba4fdd244a5e8aa4e537bd38aeae4b073aa61132b610f64565b604080516001600160a01b039092168252519081900360200190a1565b6001600160a01b0382166113a3576040805162461bcd60e51b815260206004820152601f60248201527f45524332303a206d696e7420746f20746865207a65726f206164647265737300604482015290519081900360640190fd5b6113af600083836115b9565b6002546113bc9082611246565b6002556001600160a01b0382166000908152602081905260409020546113e29082611246565b6001600160a01b0383166000818152602081815260408083209490945583518581529351929391927fddf252ad1be2c89b69c2b068fc378daa952ba7f163c4a11628f55a4df523b3ef9281900390910190a35050565b611440610b10565b15611485576040805162461bcd60e51b815260206004820152601060248201526f14185d5cd8589b194e881c185d5cd95960821b604482015290519081900360640190fd5b6005805461ff0019166101001790557f62e78cea01bee320cd4e420270b5ea74000d11b0c9f74754ebdbfc544b05a25861132b610f64565b6001600160a01b0382166115025760405162461bcd60e51b81526004018080602001828103825260218152602001806117666021913960400191505060405180910390fd5b61150e826000836115b9565b61154b8160405180606001604052806022815260200161168e602291396001600160a01b03851660009081526020819052604090205491906111af565b6001600160a01b038316600090815260208190526040902055600254611571908261160d565b6002556040805182815290516000916001600160a01b038516917fddf252ad1be2c89b69c2b068fc378daa952ba7f163c4a11628f55a4df523b3ef9181900360200190a35050565b6115c4838383611608565b6115cc610b10565b156116085760405162461bcd60e51b815260040180806020018281038252602a8152602001806117f5602a913960400191505060405180910390fd5b505050565b600082821115611664576040805162461bcd60e51b815260206004820152601e60248201527f536166654d6174683a207375627472616374696f6e206f766572666c6f770000604482015290519081900360640190fd5b5090039056fe45524332303a207472616e7366657220746f20746865207a65726f206164647265737345524332303a206275726e20616d6f756e7420657863656564732062616c616e63654f776e61626c653a206e6577206f776e657220697320746865207a65726f206164647265737345524332303a20617070726f766520746f20746865207a65726f206164647265737345524332303a207472616e7366657220616d6f756e7420657863656564732062616c616e636545524332303a207472616e7366657220616d6f756e74206578636565647320616c6c6f77616e63654f776e61626c653a2063616c6c6572206973206e6f7420746865206f776e657245524332303a206275726e2066726f6d20746865207a65726f206164647265737345524332303a207472616e736665722066726f6d20746865207a65726f206164647265737345524332303a20617070726f76652066726f6d20746865207a65726f206164647265737345524332303a2064656372656173656420616c6c6f77616e63652062656c6f77207a65726f45524332305061757361626c653a20746f6b656e207472616e73666572207768696c6520706175736564a26469706673582212208051b6eb0dc48efccf033dabf5ffa6f338519fc4dc933e803e8e7cea606ca52264736f6c634300060c0033",
  "linkReferences": {},
  "deployedLinkReferences": {}
}