{
  "_format": "hh-sol-artifact-1",
  "contractName": "Esm",
  "sourceName": "contracts/Esm.sol",
  "abi": [
    {
      "inputs": [],
      "stateMutability": "nonpayable",
      "type": "constructor"
    },
    {
      "anonymous": false,
      "inputs": [
        {
          "indexed": true,
          "internalType": "address[]",
          "name": "accounts",
          "type": "address[]"
        }
      ],
      "name": "AddedToWhitelist",
      "type": "event"
    },
    {
      "anonymous": false,
      "inputs": [
        {
          "indexed": true,
          "internalType": "address",
          "name": "previousOwner",
          "type": "address"
        },
        {
          "indexed": true,
          "internalType": "address",
          "name": "newOwner",
          "type": "address"
        }
      ],
      "name": "OwnershipTransferred",
      "type": "event"
    },
    {
      "anonymous": false,
      "inputs": [
        {
          "indexed": true,
          "internalType": "address",
          "name": "account",
          "type": "address"
        }
      ],
      "name": "RemovedFromWhitelist",
      "type": "event"
    },
    {
      "anonymous": false,
      "inputs": [
        {
          "indexed": false,
          "internalType": "uint256",
          "name": "blocknumber",
          "type": "uint256"
        },
        {
          "indexed": false,
          "internalType": "uint256",
          "name": "time",
          "type": "uint256"
        }
      ],
      "name": "ShutDown",
      "type": "event"
    },
    {
      "inputs": [
        {
          "internalType": "address[]",
          "name": "_addresses",
          "type": "address[]"
        }
      ],
      "name": "addWhite",
      "outputs": [],
      "stateMutability": "nonpayable",
      "type": "function"
    },
    {
      "inputs": [],
      "name": "getWhitelistedAddresses",
      "outputs": [
        {
          "internalType": "address[]",
          "name": "",
          "type": "address[]"
        }
      ],
      "stateMutability": "view",
      "type": "function"
    },
    {
      "inputs": [],
      "name": "isClosed",
      "outputs": [
        {
          "internalType": "bool",
          "name": "",
          "type": "bool"
        }
      ],
      "stateMutability": "view",
      "type": "function"
    },
    {
      "inputs": [],
      "name": "isRedeemPaused",
      "outputs": [
        {
          "internalType": "bool",
          "name": "",
          "type": "bool"
        }
      ],
      "stateMutability": "view",
      "type": "function"
    },
    {
      "inputs": [],
      "name": "isStakePaused",
      "outputs": [
        {
          "internalType": "bool",
          "name": "",
          "type": "bool"
        }
      ],
      "stateMutability": "view",
      "type": "function"
    },
    {
      "inputs": [
        {
          "internalType": "address",
          "name": "_address",
          "type": "address"
        }
      ],
      "name": "isWhitelisted",
      "outputs": [
        {
          "internalType": "bool",
          "name": "",
          "type": "bool"
        }
      ],
      "stateMutability": "view",
      "type": "function"
    },
    {
      "inputs": [],
      "name": "openRedeem",
      "outputs": [],
      "stateMutability": "nonpayable",
      "type": "function"
    },
    {
      "inputs": [],
      "name": "openStake",
      "outputs": [],
      "stateMutability": "nonpayable",
      "type": "function"
    },
    {
      "inputs": [],
      "name": "owner",
      "outputs": [
        {
          "internalType": "address",
          "name": "",
          "type": "address"
        }
      ],
      "stateMutability": "view",
      "type": "function"
    },
    {
      "inputs": [],
      "name": "pauseRedeem",
      "outputs": [],
      "stateMutability": "nonpayable",
      "type": "function"
    },
    {
      "inputs": [],
      "name": "pauseStake",
      "outputs": [],
      "stateMutability": "nonpayable",
      "type": "function"
    },
    {
      "inputs": [],
      "name": "redeemLive",
      "outputs": [
        {
          "internalType": "uint256",
          "name": "",
          "type": "uint256"
        }
      ],
      "stateMutability": "view",
      "type": "function"
    },
    {
      "inputs": [
        {
          "internalType": "address",
          "name": "_address",
          "type": "address"
        },
        {
          "internalType": "uint256",
          "name": "_index",
          "type": "uint256"
        }
      ],
      "name": "removeWhite",
      "outputs": [],
      "stateMutability": "nonpayable",
      "type": "function"
    },
    {
      "inputs": [],
      "name": "renounceOwnership",
      "outputs": [],
      "stateMutability": "nonpayable",
      "type": "function"
    },
    {
      "inputs": [],
      "name": "shutdown",
      "outputs": [],
      "stateMutability": "nonpayable",
      "type": "function"
    },
    {
      "inputs": [],
      "name": "stakeLive",
      "outputs": [
        {
          "internalType": "uint256",
          "name": "",
          "type": "uint256"
        }
      ],
      "stateMutability": "view",
      "type": "function"
    },
    {
      "inputs": [],
      "name": "time",
      "outputs": [
        {
          "internalType": "uint256",
          "name": "",
          "type": "uint256"
        }
      ],
      "stateMutability": "view",
      "type": "function"
    },
    {
      "inputs": [
        {
          "internalType": "address",
          "name": "newOwner",
          "type": "address"
        }
      ],
      "name": "transferOwnership",
      "outputs": [],
      "stateMutability": "nonpayable",
      "type": "function"
    },
    {
      "inputs": [
        {
          "internalType": "address",
          "name": "",
          "type": "address"
        }
      ],
      "name": "whitelist",
      "outputs": [
        {
          "internalType": "bool",
          "name": "",
          "type": "bool"
        }
      ],
      "stateMutability": "view",
      "type": "function"
    },
    {
      "inputs": [
        {
          "internalType": "uint256",
          "name": "",
          "type": "uint256"
        }
      ],
      "name": "whitelistedAddresses",
      "outputs": [
        {
          "internalType": "address",
          "name": "",
          "type": "address"
        }
      ],
      "stateMutability": "view",
      "type": "function"
    }
  ],
  "bytecode": "0x60806040526001600355600160045534801561001a57600080fd5b5060006100256100dc565b600080546001600160a01b0319166001600160a01b0383169081178255604051929350917f8be0079c531659141344cd1fd0a4f28419497f9722a3daafe3b4186f6b6457e0908290a35060405180602001604052806100886100e060201b60201c565b6001600160a01b031690526100a19060029060016100ef565b5060018060006100af6100e0565b6001600160a01b031681526020810191909152604001600020805460ff1916911515919091179055610173565b3390565b6000546001600160a01b031690565b828054828255906000526020600020908101928215610144579160200282015b8281111561014457825182546001600160a01b0319166001600160a01b0390911617825560209092019160019091019061010f565b50610150929150610154565b5090565b5b808211156101505780546001600160a01b0319168155600101610155565b610baf806101826000396000f3fe608060405234801561001057600080fd5b506004361061012c5760003560e01c8063715018a6116100ad578063c2b6b58c11610071578063c2b6b58c1461034d578063e2c60c2814610355578063f2fde38b1461035d578063f889cd0614610383578063fc0e74d11461038b5761012c565b8063715018a6146102d6578063785abc6d146102de5780638da5cb5b146102e65780639b19251a1461030a578063ba4e5c49146103305761012c565b806339703c68116100f457806339703c68146102085780633af32abf146102345780633cd9b53c1461026e57806342810967146102765780636d0280271461027e5761012c565b80630cf3c3e5146101315780630ee89a891461013b57806316ada5471461015557806332ec84d21461015d5780633478d03a14610165575b600080fd5b610139610393565b005b6101436103e7565b60408051918252519081900360200190f35b6101436103ed565b6101396103f3565b6101396004803603602081101561017b57600080fd5b81019060208101813564010000000081111561019657600080fd5b8201836020820111156101a857600080fd5b803590602001918460208302840111640100000000831117156101ca57600080fd5b919080806020026020016040519081016040528093929190818152602001838360200280828437600092019190915250929550610447945050505050565b6101396004803603604081101561021e57600080fd5b506001600160a01b03813516906020013561060b565b61025a6004803603602081101561024a57600080fd5b50356001600160a01b0316610718565b604080519115158252519081900360200190f35b61025a610736565b61013961073d565b610286610791565b60408051602080825283518183015283519192839290830191858101910280838360005b838110156102c25781810151838201526020016102aa565b505050509050019250505060405180910390f35b6101396107f3565b61014361089f565b6102ee6108a5565b604080516001600160a01b039092168252519081900360200190f35b61025a6004803603602081101561032057600080fd5b50356001600160a01b03166108b4565b6102ee6004803603602081101561034657600080fd5b50356108c9565b61025a6108f0565b61025a6108f8565b6101396004803603602081101561037357600080fd5b50356001600160a01b03166108ff565b610139610a01565b610139610a55565b61039c33610718565b6103e0576040805162461bcd60e51b815260206004820152601060248201526f1b9bdd081a5b881dda1a5d195b1a5cdd60821b604482015290519081900360640190fd5b6001600455565b60045481565b60055481565b6103fc33610718565b610440576040805162461bcd60e51b815260206004820152601060248201526f1b9bdd081a5b881dda1a5d195b1a5cdd60821b604482015290519081900360640190fd5b6000600455565b61044f610b2f565b6001600160a01b03166104606108a5565b6001600160a01b0316146104a9576040805162461bcd60e51b81526020600482018190526024820152600080516020610b5a833981519152604482015290519081900360640190fd5b60005b815181101561059e57600160008383815181106104c557fe5b6020908102919091018101516001600160a01b031682528101919091526040016000205460ff161515600114156104fb57600080fd5b600180600084848151811061050c57fe5b60200260200101516001600160a01b03166001600160a01b0316815260200190815260200160002060006101000a81548160ff021916908315150217905550600282828151811061055957fe5b60209081029190910181015182546001808201855560009485529290932090920180546001600160a01b0319166001600160a01b0390931692909217909155016104ac565b508060405180828051906020019060200280838360005b838110156105cd5781810151838201526020016105b5565b505060405194909201849003842095507fe3c5086a518f78e8aa61952bb9c28a9a0f0022707e537ea961faa918e0d89f6f945060009392505050a250565b610613610b2f565b6001600160a01b03166106246108a5565b6001600160a01b03161461066d576040805162461bcd60e51b81526020600482018190526024820152600080516020610b5a833981519152604482015290519081900360640190fd5b6002818154811061067a57fe5b6000918252602090912001546001600160a01b0383811691161461069d57600080fd5b6001600160a01b0382166000908152600160205260409020805460ff1916905560028054829081106106cb57fe5b6000918252602082200180546001600160a01b03191690556040516001600160a01b038416917fcdd2e9b91a56913d370075169cefa1602ba36be5301664f752192bb1709df75791a25050565b6001600160a01b031660009081526001602052604090205460ff1690565b6004541590565b61074633610718565b61078a576040805162461bcd60e51b815260206004820152601060248201526f1b9bdd081a5b881dda1a5d195b1a5cdd60821b604482015290519081900360640190fd5b6000600355565b606060028054806020026020016040519081016040528092919081815260200182805480156107e957602002820191906000526020600020905b81546001600160a01b031681526001909101906020018083116107cb575b5050505050905090565b6107fb610b2f565b6001600160a01b031661080c6108a5565b6001600160a01b031614610855576040805162461bcd60e51b81526020600482018190526024820152600080516020610b5a833981519152604482015290519081900360640190fd5b600080546040516001600160a01b03909116907f8be0079c531659141344cd1fd0a4f28419497f9722a3daafe3b4186f6b6457e0908390a3600080546001600160a01b0319169055565b60035481565b6000546001600160a01b031690565b60016020526000908152604090205460ff1681565b600281815481106108d657fe5b6000918252602090912001546001600160a01b0316905081565b600554151590565b6003541590565b610907610b2f565b6001600160a01b03166109186108a5565b6001600160a01b031614610961576040805162461bcd60e51b81526020600482018190526024820152600080516020610b5a833981519152604482015290519081900360640190fd5b6001600160a01b0381166109a65760405162461bcd60e51b8152600401808060200182810382526026815260200180610b346026913960400191505060405180910390fd5b600080546040516001600160a01b03808516939216917f8be0079c531659141344cd1fd0a4f28419497f9722a3daafe3b4186f6b6457e091a3600080546001600160a01b0319166001600160a01b0392909216919091179055565b610a0a33610718565b610a4e576040805162461bcd60e51b815260206004820152601060248201526f1b9bdd081a5b881dda1a5d195b1a5cdd60821b604482015290519081900360640190fd5b6001600355565b610a5e33610718565b610aa2576040805162461bcd60e51b815260206004820152601060248201526f1b9bdd081a5b881dda1a5d195b1a5cdd60821b604482015290519081900360640190fd5b60055415610aec576040805162461bcd60e51b815260206004820152601260248201527129bcb9ba32b69031b637b9b2b2103cb2ba1760711b604482015290519081900360640190fd5b42600581905560408051438152602081019290925280517f1126df7f175d4d236d5d9b6495a1ab0bf818f1215ca07f4d442ef5d58a6d99649281900390910190a1565b339056fe4f776e61626c653a206e6577206f776e657220697320746865207a65726f20616464726573734f776e61626c653a2063616c6c6572206973206e6f7420746865206f776e6572a2646970667358221220d8c4362790c1f18f9742a6b64a2fef923eb85b73e6f5168e5789a694f6c94e1164736f6c634300060c0033",
  "linkReferences": {},
  "deployedLinkReferences": {}
}