{
  "_format": "hh-sol-artifact-1",
  "contractName": "Stake",
  "sourceName": "contracts/Stake.sol",
  "abi": [
    {
      "inputs": [
        {
          "internalType": "address",
          "name": "_esm",
          "type": "address"
        },
        {
          "internalType": "address",
          "name": "_param",
          "type": "address"
        },
        {
          "internalType": "address",
          "name": "_orcl",
          "type": "address"
        }
      ],
      "stateMutability": "nonpayable",
      "type": "constructor"
    },
    {
      "anonymous": false,
      "inputs": [
        {
          "indexed": true,
          "internalType": "address[]",
          "name": "accounts",
          "type": "address[]"
        }
      ],
      "name": "AddedToWhitelist",
      "type": "event"
    },
    {
      "anonymous": false,
      "inputs": [
        {
          "indexed": true,
          "internalType": "address",
          "name": "previousOwner",
          "type": "address"
        },
        {
          "indexed": true,
          "internalType": "address",
          "name": "newOwner",
          "type": "address"
        }
      ],
      "name": "OwnershipTransferred",
      "type": "event"
    },
    {
      "anonymous": false,
      "inputs": [
        {
          "indexed": false,
          "internalType": "uint256",
          "name": "token",
          "type": "uint256"
        },
        {
          "indexed": false,
          "internalType": "uint256",
          "name": "move",
          "type": "uint256"
        },
        {
          "indexed": false,
          "internalType": "uint256",
          "name": "fee",
          "type": "uint256"
        },
        {
          "indexed": false,
          "internalType": "uint256",
          "name": "coin",
          "type": "uint256"
        }
      ],
      "name": "RedeemEvent",
      "type": "event"
    },
    {
      "anonymous": false,
      "inputs": [
        {
          "indexed": true,
          "internalType": "address",
          "name": "account",
          "type": "address"
        }
      ],
      "name": "RemovedFromWhitelist",
      "type": "event"
    },
    {
      "anonymous": false,
      "inputs": [
        {
          "indexed": false,
          "internalType": "address",
          "name": "token",
          "type": "address"
        },
        {
          "indexed": false,
          "internalType": "address",
          "name": "coin",
          "type": "address"
        }
      ],
      "name": "SetupCoin",
      "type": "event"
    },
    {
      "anonymous": false,
      "inputs": [
        {
          "indexed": false,
          "internalType": "address",
          "name": "esm",
          "type": "address"
        }
      ],
      "name": "SetupEsm",
      "type": "event"
    },
    {
      "anonymous": false,
      "inputs": [
        {
          "indexed": false,
          "internalType": "address",
          "name": "orcl",
          "type": "address"
        }
      ],
      "name": "SetupOracle",
      "type": "event"
    },
    {
      "anonymous": false,
      "inputs": [
        {
          "indexed": false,
          "internalType": "address",
          "name": "param",
          "type": "address"
        }
      ],
      "name": "SetupParam",
      "type": "event"
    },
    {
      "anonymous": false,
      "inputs": [
        {
          "indexed": false,
          "internalType": "uint256",
          "name": "token",
          "type": "uint256"
        },
        {
          "indexed": false,
          "internalType": "uint256",
          "name": "coin",
          "type": "uint256"
        }
      ],
      "name": "StakeEvent",
      "type": "event"
    },
    {
      "inputs": [
        {
          "internalType": "address[]",
          "name": "_addresses",
          "type": "address[]"
        }
      ],
      "name": "addWhite",
      "outputs": [],
      "stateMutability": "nonpayable",
      "type": "function"
    },
    {
      "inputs": [
        {
          "internalType": "address",
          "name": "",
          "type": "address"
        }
      ],
      "name": "coins",
      "outputs": [
        {
          "internalType": "uint256",
          "name": "",
          "type": "uint256"
        }
      ],
      "stateMutability": "view",
      "type": "function"
    },
    {
      "inputs": [
        {
          "internalType": "address",
          "name": "account",
          "type": "address"
        }
      ],
      "name": "debtOf",
      "outputs": [
        {
          "internalType": "uint256",
          "name": "",
          "type": "uint256"
        },
        {
          "internalType": "uint256",
          "name": "",
          "type": "uint256"
        }
      ],
      "stateMutability": "view",
      "type": "function"
    },
    {
      "inputs": [],
      "name": "getCoinAddress",
      "outputs": [
        {
          "internalType": "address",
          "name": "",
          "type": "address"
        }
      ],
      "stateMutability": "view",
      "type": "function"
    },
    {
      "inputs": [],
      "name": "getEsmAddr",
      "outputs": [
        {
          "internalType": "address",
          "name": "",
          "type": "address"
        }
      ],
      "stateMutability": "view",
      "type": "function"
    },
    {
      "inputs": [
        {
          "internalType": "uint256",
          "name": "coinAmount",
          "type": "uint256"
        }
      ],
      "name": "getInputToken",
      "outputs": [
        {
          "internalType": "uint256",
          "name": "tokenAmount",
          "type": "uint256"
        }
      ],
      "stateMutability": "view",
      "type": "function"
    },
    {
      "inputs": [],
      "name": "getOracleAddr",
      "outputs": [
        {
          "internalType": "address",
          "name": "",
          "type": "address"
        }
      ],
      "stateMutability": "view",
      "type": "function"
    },
    {
      "inputs": [],
      "name": "getParamsAddr",
      "outputs": [
        {
          "internalType": "address",
          "name": "",
          "type": "address"
        }
      ],
      "stateMutability": "view",
      "type": "function"
    },
    {
      "inputs": [],
      "name": "getTokenAddress",
      "outputs": [
        {
          "internalType": "address",
          "name": "",
          "type": "address"
        }
      ],
      "stateMutability": "view",
      "type": "function"
    },
    {
      "inputs": [],
      "name": "getWhitelistedAddresses",
      "outputs": [
        {
          "internalType": "address[]",
          "name": "",
          "type": "address[]"
        }
      ],
      "stateMutability": "view",
      "type": "function"
    },
    {
      "inputs": [
        {
          "internalType": "address",
          "name": "_address",
          "type": "address"
        }
      ],
      "name": "isWhitelisted",
      "outputs": [
        {
          "internalType": "bool",
          "name": "",
          "type": "bool"
        }
      ],
      "stateMutability": "view",
      "type": "function"
    },
    {
      "inputs": [
        {
          "internalType": "uint256",
          "name": "coinAmount",
          "type": "uint256"
        },
        {
          "internalType": "address",
          "name": "receiver",
          "type": "address"
        }
      ],
      "name": "oRedeem",
      "outputs": [],
      "stateMutability": "nonpayable",
      "type": "function"
    },
    {
      "inputs": [
        {
          "internalType": "uint256",
          "name": "coinAmount",
          "type": "uint256"
        }
      ],
      "name": "oRedeem",
      "outputs": [],
      "stateMutability": "nonpayable",
      "type": "function"
    },
    {
      "inputs": [],
      "name": "owner",
      "outputs": [
        {
          "internalType": "address",
          "name": "",
          "type": "address"
        }
      ],
      "stateMutability": "view",
      "type": "function"
    },
    {
      "inputs": [
        {
          "internalType": "uint256",
          "name": "coinAmount",
          "type": "uint256"
        }
      ],
      "name": "redeem",
      "outputs": [],
      "stateMutability": "nonpayable",
      "type": "function"
    },
    {
      "inputs": [],
      "name": "redeemMax",
      "outputs": [],
      "stateMutability": "nonpayable",
      "type": "function"
    },
    {
      "inputs": [
        {
          "internalType": "address",
          "name": "holder",
          "type": "address"
        }
      ],
      "name": "redeemMax",
      "outputs": [],
      "stateMutability": "nonpayable",
      "type": "function"
    },
    {
      "inputs": [
        {
          "internalType": "uint256",
          "name": "coinAmount",
          "type": "uint256"
        },
        {
          "internalType": "address",
          "name": "receiver",
          "type": "address"
        }
      ],
      "name": "redeem_",
      "outputs": [],
      "stateMutability": "nonpayable",
      "type": "function"
    },
    {
      "inputs": [
        {
          "internalType": "address",
          "name": "_address",
          "type": "address"
        },
        {
          "internalType": "uint256",
          "name": "_index",
          "type": "uint256"
        }
      ],
      "name": "removeWhite",
      "outputs": [],
      "stateMutability": "nonpayable",
      "type": "function"
    },
    {
      "inputs": [],
      "name": "renounceOwnership",
      "outputs": [],
      "stateMutability": "nonpayable",
      "type": "function"
    },
    {
      "inputs": [],
      "name": "sFee",
      "outputs": [
        {
          "internalType": "uint256",
          "name": "",
          "type": "uint256"
        }
      ],
      "stateMutability": "view",
      "type": "function"
    },
    {
      "inputs": [
        {
          "internalType": "address",
          "name": "_token",
          "type": "address"
        },
        {
          "internalType": "address",
          "name": "_coin",
          "type": "address"
        }
      ],
      "name": "setup",
      "outputs": [],
      "stateMutability": "nonpayable",
      "type": "function"
    },
    {
      "inputs": [
        {
          "internalType": "address",
          "name": "_esm",
          "type": "address"
        }
      ],
      "name": "setupEsm",
      "outputs": [],
      "stateMutability": "nonpayable",
      "type": "function"
    },
    {
      "inputs": [
        {
          "internalType": "address",
          "name": "_orcl",
          "type": "address"
        }
      ],
      "name": "setupOracle",
      "outputs": [],
      "stateMutability": "nonpayable",
      "type": "function"
    },
    {
      "inputs": [
        {
          "internalType": "address",
          "name": "_params",
          "type": "address"
        }
      ],
      "name": "setupParams",
      "outputs": [],
      "stateMutability": "nonpayable",
      "type": "function"
    },
    {
      "inputs": [
        {
          "internalType": "uint256",
          "name": "coinAmount",
          "type": "uint256"
        }
      ],
      "name": "stake",
      "outputs": [],
      "stateMutability": "nonpayable",
      "type": "function"
    },
    {
      "inputs": [
        {
          "internalType": "address",
          "name": "",
          "type": "address"
        }
      ],
      "name": "tokens",
      "outputs": [
        {
          "internalType": "uint256",
          "name": "",
          "type": "uint256"
        }
      ],
      "stateMutability": "view",
      "type": "function"
    },
    {
      "inputs": [],
      "name": "totalCoin",
      "outputs": [
        {
          "internalType": "uint256",
          "name": "",
          "type": "uint256"
        }
      ],
      "stateMutability": "view",
      "type": "function"
    },
    {
      "inputs": [],
      "name": "totalToken",
      "outputs": [
        {
          "internalType": "uint256",
          "name": "",
          "type": "uint256"
        }
      ],
      "stateMutability": "view",
      "type": "function"
    },
    {
      "inputs": [
        {
          "internalType": "address",
          "name": "newOwner",
          "type": "address"
        }
      ],
      "name": "transferOwnership",
      "outputs": [],
      "stateMutability": "nonpayable",
      "type": "function"
    },
    {
      "inputs": [
        {
          "internalType": "address",
          "name": "",
          "type": "address"
        }
      ],
      "name": "whitelist",
      "outputs": [
        {
          "internalType": "bool",
          "name": "",
          "type": "bool"
        }
      ],
      "stateMutability": "view",
      "type": "function"
    },
    {
      "inputs": [
        {
          "internalType": "uint256",
          "name": "",
          "type": "uint256"
        }
      ],
      "name": "whitelistedAddresses",
      "outputs": [
        {
          "internalType": "address",
          "name": "",
          "type": "address"
        }
      ],
      "stateMutability": "view",
      "type": "function"
    }
  ],
  "bytecode": "0x60806040523480156200001157600080fd5b5060405162002b4338038062002b43833981810160405260608110156200003757600080fd5b50805160208201516040909201519091906000620000546200014d565b600080546001600160a01b0319166001600160a01b0383169081178255604051929350917f8be0079c531659141344cd1fd0a4f28419497f9722a3daafe3b4186f6b6457e0908290a3506040518060200160405280620000b96200015160201b60201c565b6001600160a01b03169052620000d490600290600162000160565b506001806000620000e462000151565b6001600160a01b0390811682526020820192909252604001600020805460ff191692151592909217909155600880546001600160a01b031990811694831694909417905560098054841692821692909217909155600a80549092169216919091179055620001eb565b3390565b6000546001600160a01b031690565b828054828255906000526020600020908101928215620001b8579160200282015b82811115620001b857825182546001600160a01b0319166001600160a01b0390911617825560209092019160019091019062000181565b50620001c6929150620001ca565b5090565b5b80821115620001c65780546001600160a01b0319168155600101620001cb565b61294880620001fb6000396000f3fe608060405234801561001057600080fd5b50600436106101f05760003560e01c80639d5e68e61161010f578063cad5a3e4116100a2578063e3fe4e8511610071578063e3fe4e85146105e4578063e486033914610610578063f251234814610636578063f2fde38b1461063e576101f0565b8063cad5a3e41461055a578063cd1f66ff14610562578063d283e75f14610588578063db006a75146105c7576101f0565b8063b69e5e95116100de578063b69e5e95146104ce578063b7565d29146104fa578063ba4e5c4914610517578063c0d66cef14610534576101f0565b80639d5e68e614610484578063a53c72481461048c578063a62f723c146104a9578063a694fc3a146104b1576101f0565b80635d58d31211610187578063715018a611610156578063715018a6146104285780637d0f7a88146104305780638da5cb5b146104565780639b19251a1461045e576101f0565b80635d58d3121461037c578063626aa3bc146103a2578063626be567146103c85780636d028027146103d0576101f0565b806339ce4227116101c357806339ce4227146103185780633af32abf14610332578063400430681461036c57806345baf33214610374576101f0565b806310fe9ae8146101f55780632d34ba79146102195780633478d03a1461024957806339703c68146102ec575b600080fd5b6101fd610664565b604080516001600160a01b039092168252519081900360200190f35b6102476004803603604081101561022f57600080fd5b506001600160a01b0381358116916020013516610673565b005b6102476004803603602081101561025f57600080fd5b81019060208101813564010000000081111561027a57600080fd5b82018360208201111561028c57600080fd5b803590602001918460208302840111640100000000831117156102ae57600080fd5b919080806020026020016040519081016040528093929190818152602001838360200280828437600092019190915250929550610791945050505050565b6102476004803603604081101561030257600080fd5b506001600160a01b038135169060200135610955565b610320610a62565b60408051918252519081900360200190f35b6103586004803603602081101561034857600080fd5b50356001600160a01b0316610a68565b604080519115158252519081900360200190f35b6101fd610a8a565b6101fd610a99565b6102476004803603602081101561039257600080fd5b50356001600160a01b0316610aa8565b610247600480360360208110156103b857600080fd5b50356001600160a01b0316610b49565b610320610bea565b6103d8610bf0565b60408051602080825283518183015283519192839290830191858101910280838360005b838110156104145781810151838201526020016103fc565b505050509050019250505060405180910390f35b610247610c52565b6103206004803603602081101561044657600080fd5b50356001600160a01b0316610cfe565b6101fd610d10565b6103586004803603602081101561047457600080fd5b50356001600160a01b0316610d1f565b6101fd610d34565b610320600480360360208110156104a257600080fd5b5035610d43565b610247610eac565b610247600480360360208110156104c757600080fd5b5035610eb7565b610247600480360360408110156104e457600080fd5b50803590602001356001600160a01b031661166a565b6102476004803603602081101561051057600080fd5b5035611678565b6101fd6004803603602081101561052d57600080fd5b5035611685565b6102476004803603602081101561054a57600080fd5b50356001600160a01b03166116ac565b6101fd6116c6565b6102476004803603602081101561057857600080fd5b50356001600160a01b03166116d5565b6105ae6004803603602081101561059e57600080fd5b50356001600160a01b0316611776565b6040805192835260208301919091528051918290030190f35b610247600480360360208110156105dd57600080fd5b503561179e565b610247600480360360408110156105fa57600080fd5b50803590602001356001600160a01b03166117a4565b6103206004803603602081101561062657600080fd5b50356001600160a01b03166117ae565b6103206117c0565b6102476004803603602081101561065457600080fd5b50356001600160a01b03166117c6565b600c546001600160a01b031690565b61067c33610a68565b6106c0576040805162461bcd60e51b815260206004820152601060248201526f1b9bdd081a5b881dda1a5d195b1a5cdd60821b604482015290519081900360640190fd5b600c546001600160a01b03161580156106e25750600b546001600160a01b0316155b610722576040805162461bcd60e51b815260206004820152600c60248201526b39b2ba3ab832b2103cb2ba1760a11b604482015290519081900360640190fd5b600c80546001600160a01b038085166001600160a01b03199283168117909355600b805491851691909216811790915560408051928352602083019190915280517f055d48959ab0a44a3dfe28fcac1d5b64ed25011093fc295336744a51ccfdb5c79281900390910190a15050565b6107996118c8565b6001600160a01b03166107aa610d10565b6001600160a01b0316146107f3576040805162461bcd60e51b81526020600482018190526024820152600080516020612881833981519152604482015290519081900360640190fd5b60005b81518110156108e8576001600083838151811061080f57fe5b6020908102919091018101516001600160a01b031682528101919091526040016000205460ff1615156001141561084557600080fd5b600180600084848151811061085657fe5b60200260200101516001600160a01b03166001600160a01b0316815260200190815260200160002060006101000a81548160ff02191690831515021790555060028282815181106108a357fe5b60209081029190910181015182546001808201855560009485529290932090920180546001600160a01b0319166001600160a01b0390931692909217909155016107f6565b508060405180828051906020019060200280838360005b838110156109175781810151838201526020016108ff565b505060405194909201849003842095507fe3c5086a518f78e8aa61952bb9c28a9a0f0022707e537ea961faa918e0d89f6f945060009392505050a250565b61095d6118c8565b6001600160a01b031661096e610d10565b6001600160a01b0316146109b7576040805162461bcd60e51b81526020600482018190526024820152600080516020612881833981519152604482015290519081900360640190fd5b600281815481106109c457fe5b6000918252602090912001546001600160a01b038381169116146109e757600080fd5b6001600160a01b0382166000908152600160205260409020805460ff191690556002805482908110610a1557fe5b6000918252602082200180546001600160a01b03191690556040516001600160a01b038416917fcdd2e9b91a56913d370075169cefa1602ba36be5301664f752192bb1709df75791a25050565b60055481565b6001600160a01b03811660009081526001602052604090205460ff165b919050565b600b546001600160a01b031690565b6008546001600160a01b031690565b610ab133610a68565b610af5576040805162461bcd60e51b815260206004820152601060248201526f1b9bdd081a5b881dda1a5d195b1a5cdd60821b604482015290519081900360640190fd5b600980546001600160a01b0383166001600160a01b0319909116811790915560408051918252517f70f17ab8dac76211346c8b353f372be6fe4f52618a921c29c44ff1ff144b59849181900360200190a150565b610b5233610a68565b610b96576040805162461bcd60e51b815260206004820152601060248201526f1b9bdd081a5b881dda1a5d195b1a5cdd60821b604482015290519081900360640190fd5b600880546001600160a01b0383166001600160a01b0319909116811790915560408051918252517f08e18e5b86af741f2bcc5d53c21baa21fcf02ad08ed38020a71d946239979bf79181900360200190a150565b60065481565b60606002805480602002602001604051908101604052809291908181526020018280548015610c4857602002820191906000526020600020905b81546001600160a01b03168152600190910190602001808311610c2a575b5050505050905090565b610c5a6118c8565b6001600160a01b0316610c6b610d10565b6001600160a01b031614610cb4576040805162461bcd60e51b81526020600482018190526024820152600080516020612881833981519152604482015290519081900360640190fd5b600080546040516001600160a01b03909116907f8be0079c531659141344cd1fd0a4f28419497f9722a3daafe3b4186f6b6457e0908390a3600080546001600160a01b0319169055565b60046020526000908152604090205481565b6000546001600160a01b031690565b60016020526000908152604090205460ff1681565b6009546001600160a01b031690565b600854604080516335c2ee2d60e01b815290516000926001600160a01b0316916335c2ee2d916004808301926020929190829003018186803b158015610d8857600080fd5b505afa158015610d9c573d6000803e3d6000fd5b505050506040513d6020811015610db257600080fd5b5051600854604080516381160fe360e01b81529051610ea5926001600160a01b0316916381160fe3916004808301926020929190829003018186803b158015610dfa57600080fd5b505afa158015610e0e573d6000803e3d6000fd5b505050506040513d6020811015610e2457600080fd5b505160085460408051639622323560e01b81529051610e9f926001600160a01b0316916396223235916004808301926020929190829003018186803b158015610e6c57600080fd5b505afa158015610e80573d6000803e3d6000fd5b505050506040513d6020811015610e9657600080fd5b505186906118cc565b90611935565b0292915050565b610eb5336116ac565b565b600a60009054906101000a90046001600160a01b03166001600160a01b031663c2b6b58c6040518163ffffffff1660e01b815260040160206040518083038186803b158015610f0557600080fd5b505afa158015610f19573d6000803e3d6000fd5b505050506040513d6020811015610f2f57600080fd5b505115610f73576040805162461bcd60e51b815260206004820152600d60248201526c14de5cdd195b4818db1bdcd959609a1b604482015290519081900360640190fd5b600a60009054906101000a90046001600160a01b03166001600160a01b031663e2c60c286040518163ffffffff1660e01b815260040160206040518083038186803b158015610fc157600080fd5b505afa158015610fd5573d6000803e3d6000fd5b505050506040513d6020811015610feb57600080fd5b50511561102e576040805162461bcd60e51b815260206004820152600c60248201526b14dd185ad9481c185d5cd95960a21b604482015290519081900360640190fd5b6000811161106d5760405162461bcd60e51b81526004018080602001828103825260258152602001806128a16025913960400191505060405180910390fd5b60095460408051631e35da1b60e11b815290516000926001600160a01b031691633c6bb43691600480830192602092919082900301818787803b1580156110b357600080fd5b505af11580156110c7573d6000803e3d6000fd5b505050506040513d60208110156110dd57600080fd5b505111611131576040805162461bcd60e51b815260206004820152601d60248201527f4f7261636c65207072696365206e6f7420696e697469616c697a65642e000000604482015290519081900360640190fd5b600854600554604080516304bb3def60e31b81526004810192909252516001600160a01b03909216916325d9ef7891602480820192602092909190829003018186803b15801561118057600080fd5b505afa158015611194573d6000803e3d6000fd5b505050506040513d60208110156111aa57600080fd5b50516111e75760405162461bcd60e51b815260040180806020018281038252604d8152602001806128c6604d913960600191505060405180910390fd5b336000818152600460205260409020546112b357600860009054906101000a90046001600160a01b03166001600160a01b0316638376112a6040518163ffffffff1660e01b815260040160206040518083038186803b15801561124957600080fd5b505afa15801561125d573d6000803e3d6000fd5b505050506040513d602081101561127357600080fd5b50518210156112b35760405162461bcd60e51b81526004018080602001828103825260258152602001806128156025913960400191505060405180910390fd5b60006112be83610d43565b90506112c982611995565b1580156112ed57506001600160a01b03821660009081526004602052604090205415155b156114a6576114a361149c61147d600860009054906101000a90046001600160a01b03166001600160a01b031663962232356040518163ffffffff1660e01b815260040160206040518083038186803b15801561134957600080fd5b505afa15801561135d573d6000803e3d6000fd5b505050506040513d602081101561137357600080fd5b5051600854604080516309fd76f360e11b81529051611477926001600160a01b0316916313faede6916004808301926020929190829003018186803b1580156113bb57600080fd5b505afa1580156113cf573d6000803e3d6000fd5b505050506040513d60208110156113e557600080fd5b50516001600160a01b038089166000908152600360209081526040808320546009548251631e35da1b60e11b815292516114779692959190921693633c6bb436936004808201949293918390030190829087803b15801561144557600080fd5b505af1158015611459573d6000803e3d6000fd5b505050506040513d602081101561146f57600080fd5b505190611935565b906118cc565b6001600160a01b03851660009081526004602052604090205490611b4e565b8490611b4e565b92505b600c54604080516323b872dd60e01b81526001600160a01b03858116600483015230602483015260448201859052915191909216916323b872dd9160648083019260209291908290030181600087803b15801561150257600080fd5b505af1158015611516573d6000803e3d6000fd5b505050506040513d602081101561152c57600080fd5b5050600b54604080516340c10f1960e01b81526001600160a01b03858116600483015260248201879052915191909216916340c10f1991604480830192600092919082900301818387803b15801561158357600080fd5b505af1158015611597573d6000803e3d6000fd5b50506005546115a99250905084611bab565b6005556006546115b99082611bab565b6006556001600160a01b0382166000908152600460205260409020546115df9084611bab565b6001600160a01b03831660009081526004602090815260408083209390935560039052205461160e9082611bab565b6001600160a01b03831660009081526003602090815260409182902092909255805183815291820185905280517fb4423d40ed9dae9515810826dc63edd971a73d88d5bcc6eccf17a28856ad057a9281900390910190a1505050565b6116748282611c05565b5050565b611682813361166a565b50565b6002818154811061169257fe5b6000918252602090912001546001600160a01b0316905081565b3360009081526004602052604090205461168290826117a4565b600a546001600160a01b031690565b6116de33610a68565b611722576040805162461bcd60e51b815260206004820152601060248201526f1b9bdd081a5b881dda1a5d195b1a5cdd60821b604482015290519081900360640190fd5b600a80546001600160a01b0383166001600160a01b0319909116811790915560408051918252517f1bffa28019d1cc5c1306e29d09c3d3be8a18b258f05410bc8e66e36e643e1e799181900360200190a150565b6001600160a01b03166000908152600360209081526040808320546004909252909120549091565b61168281335b6116748282612114565b60036020526000908152604090205481565b60075481565b6117ce6118c8565b6001600160a01b03166117df610d10565b6001600160a01b031614611828576040805162461bcd60e51b81526020600482018190526024820152600080516020612881833981519152604482015290519081900360640190fd5b6001600160a01b03811661186d5760405162461bcd60e51b815260040180806020018281038252602681526020018061283a6026913960400191505060405180910390fd5b600080546040516001600160a01b03808516939216917f8be0079c531659141344cd1fd0a4f28419497f9722a3daafe3b4186f6b6457e091a3600080546001600160a01b0319166001600160a01b0392909216919091179055565b3390565b6000808211611922576040805162461bcd60e51b815260206004820152601a60248201527f536166654d6174683a206469766973696f6e206279207a65726f000000000000604482015290519081900360640190fd5b81838161192b57fe5b0490505b92915050565b6000826119445750600061192f565b8282028284828161195157fe5b041461198e5760405162461bcd60e51b81526004018080602001828103825260218152602001806128606021913960400191505060405180910390fd5b9392505050565b6001600160a01b03811660009081526004602052604081205415610a855760085460408051639622323560e01b81529051611a7e926001600160a01b0316916396223235916004808301926020929190829003018186803b1580156119f957600080fd5b505afa158015611a0d573d6000803e3d6000fd5b505050506040513d6020811015611a2357600080fd5b5051600854604080516309fd76f360e11b815290516001600160a01b03909216916313faede691600480820192602092909190829003018186803b158015611a6a57600080fd5b505afa158015611459573d6000803e3d6000fd5b611b4560046000856001600160a01b03166001600160a01b0316815260200190815260200160002054611477600960009054906101000a90046001600160a01b03166001600160a01b0316633c6bb4366040518163ffffffff1660e01b8152600401602060405180830381600087803b158015611afa57600080fd5b505af1158015611b0e573d6000803e3d6000fd5b505050506040513d6020811015611b2457600080fd5b50516001600160a01b03871660009081526003602052604090205490611935565b10159050610a85565b600082821115611ba5576040805162461bcd60e51b815260206004820152601e60248201527f536166654d6174683a207375627472616374696f6e206f766572666c6f770000604482015290519081900360640190fd5b50900390565b60008282018381101561198e576040805162461bcd60e51b815260206004820152601b60248201527f536166654d6174683a206164646974696f6e206f766572666c6f770000000000604482015290519081900360640190fd5b600a60009054906101000a90046001600160a01b03166001600160a01b031663c2b6b58c6040518163ffffffff1660e01b815260040160206040518083038186803b158015611c5357600080fd5b505afa158015611c67573d6000803e3d6000fd5b505050506040513d6020811015611c7d57600080fd5b5051611cc9576040805162461bcd60e51b815260206004820152601660248201527529bcb9ba32b6903737ba1021b637b9b2b2103cb2ba1760511b604482015290519081900360640190fd5b3382611d1c576040805162461bcd60e51b815260206004820152601e60248201527f546865207175616e74697479206973206c657373207468616e207a65726f0000604482015290519081900360640190fd5b600b54604080516370a0823160e01b81526001600160a01b038481166004830152915160009392909216916370a0823191602480820192602092909190829003018186803b158015611d6d57600080fd5b505afa158015611d81573d6000803e3d6000fd5b505050506040513d6020811015611d9757600080fd5b505111611de2576040805162461bcd60e51b81526020600482015260146024820152732a34329031b7b4b7103737903130b630b731b29760611b604482015290519081900360640190fd5b600b54604080516370a0823160e01b81526001600160a01b038481166004830152915191909216916370a08231916024808301926020929190829003018186803b158015611e2f57600080fd5b505afa158015611e43573d6000803e3d6000fd5b505050506040513d6020811015611e5957600080fd5b5051831115611ea5576040805162461bcd60e51b815260206004820152601360248201527210dbda5b8818985b185b98d948195e18d95959606a1b604482015290519081900360640190fd5b6000611ec26005546114776006548761193590919063ffffffff16565b600b5460408051632770a7eb60e21b81526001600160a01b038681166004830152602482018990529151939450911691639dc29fac9160448082019260009290919082900301818387803b158015611f1957600080fd5b505af1158015611f2d573d6000803e3d6000fd5b5050600c546040805163a9059cbb60e01b81526001600160a01b03888116600483015260248201879052915191909216935063a9059cbb925060448083019260209291908290030181600087803b158015611f8757600080fd5b505af1158015611f9b573d6000803e3d6000fd5b505050506040513d6020811015611fb157600080fd5b50506001600160a01b0382166000908152600360205260409020548111612013576001600160a01b038216600090815260036020526040902054611ff59082611b4e565b6001600160a01b03831660009081526003602052604090205561202d565b6001600160a01b0382166000908152600360205260408120555b6001600160a01b038216600090815260046020526040902054841161208d576001600160a01b03821660009081526004602052604090205461206f9085611b4e565b6001600160a01b0383166000908152600460205260409020556120a7565b6001600160a01b0382166000908152600460205260408120555b6005546120b49085611b4e565b6005556006546120c49082611b4e565b60065560408051828152602081018390526000818301526060810186905290517f0cabeaa2c4a0e1c5eefe6c6097602c06789155d09c5269d9520dd6b203861be99181900360800190a150505050565b600a60009054906101000a90046001600160a01b03166001600160a01b031663c2b6b58c6040518163ffffffff1660e01b815260040160206040518083038186803b15801561216257600080fd5b505afa158015612176573d6000803e3d6000fd5b505050506040513d602081101561218c57600080fd5b5051156121d0576040805162461bcd60e51b815260206004820152600d60248201526c14de5cdd195b4818db1bdcd959609a1b604482015290519081900360640190fd5b600a60009054906101000a90046001600160a01b03166001600160a01b0316633cd9b53c6040518163ffffffff1660e01b815260040160206040518083038186803b15801561221e57600080fd5b505afa158015612232573d6000803e3d6000fd5b505050506040513d602081101561224857600080fd5b50511561228c576040805162461bcd60e51b815260206004820152600d60248201526c14995919595b481c185d5cd959609a1b604482015290519081900360640190fd5b336000818152600460205260409020546122dd576040805162461bcd60e51b815260206004820152600d60248201526c139bc818dbdb1b185d195c985b609a1b604482015290519081900360640190fd5b60008311612332576040805162461bcd60e51b815260206004820152601e60248201527f546865207175616e74697479206973206c657373207468616e207a65726f0000604482015290519081900360640190fd5b6001600160a01b038116600090815260046020526040902054831115612397576040805162461bcd60e51b8152602060048201526015602482015274696e70757420616d6f756e74206f766572666c6f7760581b604482015290519081900360640190fd5b6000806123a384611995565b61242b5760085460408051639622323560e01b815290516123ed926001600160a01b0316916396223235916004808301926020929190829003018186803b15801561134957600080fd5b6001600160a01b03851660009081526004602090815260408083205460039092529091205491935061242491611477908590611935565b9050612463565b6001600160a01b0384166000908152600460209081526040808320546003909252909120546124609190611477908890611935565b90505b6008546040805163978bbdb960e01b815290516000926001600160a01b03169163978bbdb9916004808301926020929190829003018186803b1580156124a857600080fd5b505afa1580156124bc573d6000803e3d6000fd5b505050506040513d60208110156124d257600080fd5b5051905060006124e86103e86114778585611935565b905060006124f68483611b4e565b6007549091506125069083611bab565b600755600c5460085460408051630824ea6b60e31b815290516001600160a01b039384169363a9059cbb9316916341275358916004808301926020929190829003018186803b15801561255857600080fd5b505afa15801561256c573d6000803e3d6000fd5b505050506040513d602081101561258257600080fd5b5051604080516001600160e01b031960e085901b1681526001600160a01b039092166004830152602482018690525160448083019260209291908290030181600087803b1580156125d257600080fd5b505af11580156125e6573d6000803e3d6000fd5b505050506040513d60208110156125fc57600080fd5b5050600b5460408051632770a7eb60e21b81526001600160a01b038981166004830152602482018c905291519190921691639dc29fac91604480830192600092919082900301818387803b15801561265357600080fd5b505af1158015612667573d6000803e3d6000fd5b5050600c546040805163a9059cbb60e01b81526001600160a01b038c8116600483015260248201879052915191909216935063a9059cbb925060448083019260209291908290030181600087803b1580156126c157600080fd5b505af11580156126d5573d6000803e3d6000fd5b505050506040513d60208110156126eb57600080fd5b50506001600160a01b038616600090815260036020526040902054841061272a576001600160a01b038616600090815260036020526040812055612767565b6001600160a01b03861660009081526003602052604090205461274d9085611b4e565b6001600160a01b0387166000908152600360205260409020555b6001600160a01b03861660009081526004602052604090205461278a9089611b4e565b6001600160a01b0387166000908152600460205260409020556005546127b09089611b4e565b6005556006546127c09085611b4e565b6006556040805185815260208101839052808201849052606081018a905290517f0cabeaa2c4a0e1c5eefe6c6097602c06789155d09c5269d9520dd6b203861be99181900360800190a1505050505050505056fe4669727374206d616b6520636f696e206d75737420677261746572207468616e203130302e4f776e61626c653a206e6577206f776e657220697320746865207a65726f2061646472657373536166654d6174683a206d756c7469706c69636174696f6e206f766572666c6f774f776e61626c653a2063616c6c6572206973206e6f7420746865206f776e6572546865207175616e74697479206973206c657373207468616e20746865206d696e696d756d54686520746f74616c20616d6f756e74206f6620706c6564676520696e207468652063757272656e742073797374656d20686173207265616368656420746865207570706572206c696d69742ea26469706673582212204d1f540cb5d504dd052c3a99018967e952803d25b0103f91b2491fe16b6c499364736f6c634300060c0033",
  "linkReferences": {},
  "deployedLinkReferences": {}
}