{
  "_format": "hh-sol-artifact-1",
  "contractName": "Oracle",
  "sourceName": "contracts/Orcale.sol",
  "abi": [
    {
      "inputs": [
        {
          "internalType": "address",
          "name": "_esm",
          "type": "address"
        },
        {
          "internalType": "address",
          "name": "_params",
          "type": "address"
        },
        {
          "internalType": "string",
          "name": "_name",
          "type": "string"
        }
      ],
      "stateMutability": "nonpayable",
      "type": "constructor"
    },
    {
      "anonymous": false,
      "inputs": [
        {
          "indexed": true,
          "internalType": "address[]",
          "name": "accounts",
          "type": "address[]"
        }
      ],
      "name": "AddedToWhitelist",
      "type": "event"
    },
    {
      "anonymous": false,
      "inputs": [
        {
          "indexed": false,
          "internalType": "uint256",
          "name": "val",
          "type": "uint256"
        },
        {
          "indexed": false,
          "internalType": "uint256",
          "name": "time",
          "type": "uint256"
        }
      ],
      "name": "OracleUpdate",
      "type": "event"
    },
    {
      "anonymous": false,
      "inputs": [
        {
          "indexed": true,
          "internalType": "address",
          "name": "previousOwner",
          "type": "address"
        },
        {
          "indexed": true,
          "internalType": "address",
          "name": "newOwner",
          "type": "address"
        }
      ],
      "name": "OwnershipTransferred",
      "type": "event"
    },
    {
      "anonymous": false,
      "inputs": [
        {
          "indexed": true,
          "internalType": "address",
          "name": "account",
          "type": "address"
        }
      ],
      "name": "RemovedFromWhitelist",
      "type": "event"
    },
    {
      "inputs": [
        {
          "internalType": "address[]",
          "name": "_addresses",
          "type": "address[]"
        }
      ],
      "name": "addWhite",
      "outputs": [],
      "stateMutability": "nonpayable",
      "type": "function"
    },
    {
      "inputs": [],
      "name": "getWhitelistedAddresses",
      "outputs": [
        {
          "internalType": "address[]",
          "name": "",
          "type": "address[]"
        }
      ],
      "stateMutability": "view",
      "type": "function"
    },
    {
      "inputs": [
        {
          "internalType": "address",
          "name": "_address",
          "type": "address"
        }
      ],
      "name": "isWhitelisted",
      "outputs": [
        {
          "internalType": "bool",
          "name": "",
          "type": "bool"
        }
      ],
      "stateMutability": "view",
      "type": "function"
    },
    {
      "inputs": [],
      "name": "name",
      "outputs": [
        {
          "internalType": "string",
          "name": "",
          "type": "string"
        }
      ],
      "stateMutability": "view",
      "type": "function"
    },
    {
      "inputs": [],
      "name": "owner",
      "outputs": [
        {
          "internalType": "address",
          "name": "",
          "type": "address"
        }
      ],
      "stateMutability": "view",
      "type": "function"
    },
    {
      "inputs": [],
      "name": "peek",
      "outputs": [
        {
          "internalType": "uint256",
          "name": "",
          "type": "uint256"
        }
      ],
      "stateMutability": "view",
      "type": "function"
    },
    {
      "inputs": [
        {
          "internalType": "uint256",
          "name": "price",
          "type": "uint256"
        }
      ],
      "name": "poke",
      "outputs": [],
      "stateMutability": "nonpayable",
      "type": "function"
    },
    {
      "inputs": [
        {
          "internalType": "address",
          "name": "_address",
          "type": "address"
        },
        {
          "internalType": "uint256",
          "name": "_index",
          "type": "uint256"
        }
      ],
      "name": "removeWhite",
      "outputs": [],
      "stateMutability": "nonpayable",
      "type": "function"
    },
    {
      "inputs": [],
      "name": "renounceOwnership",
      "outputs": [],
      "stateMutability": "nonpayable",
      "type": "function"
    },
    {
      "inputs": [],
      "name": "time",
      "outputs": [
        {
          "internalType": "uint256",
          "name": "",
          "type": "uint256"
        }
      ],
      "stateMutability": "view",
      "type": "function"
    },
    {
      "inputs": [
        {
          "internalType": "address",
          "name": "newOwner",
          "type": "address"
        }
      ],
      "name": "transferOwnership",
      "outputs": [],
      "stateMutability": "nonpayable",
      "type": "function"
    },
    {
      "inputs": [],
      "name": "val",
      "outputs": [
        {
          "internalType": "uint256",
          "name": "",
          "type": "uint256"
        }
      ],
      "stateMutability": "view",
      "type": "function"
    },
    {
      "inputs": [
        {
          "internalType": "address",
          "name": "",
          "type": "address"
        }
      ],
      "name": "whitelist",
      "outputs": [
        {
          "internalType": "bool",
          "name": "",
          "type": "bool"
        }
      ],
      "stateMutability": "view",
      "type": "function"
    },
    {
      "inputs": [
        {
          "internalType": "uint256",
          "name": "",
          "type": "uint256"
        }
      ],
      "name": "whitelistedAddresses",
      "outputs": [
        {
          "internalType": "address",
          "name": "",
          "type": "address"
        }
      ],
      "stateMutability": "view",
      "type": "function"
    }
  ],
  "bytecode": "0x60806040523480156200001157600080fd5b5060405162000ff338038062000ff3833981810160405260608110156200003757600080fd5b815160208301516040808501805191519395929483019291846401000000008211156200006357600080fd5b9083019060208201858111156200007957600080fd5b82516401000000008111828201881017156200009457600080fd5b82525081516020918201929091019080838360005b83811015620000c3578181015183820152602001620000a9565b50505050905090810190601f168015620000f15780820380516001836020036101000a031916815260200191505b5060405250505060006200010a6200020e60201b60201c565b600080546001600160a01b0319166001600160a01b0383169081178255604051929350917f8be0079c531659141344cd1fd0a4f28419497f9722a3daafe3b4186f6b6457e0908290a35060405180602001604052806200016f6200021260201b60201c565b6001600160a01b031690526200018a90600290600162000221565b5060018060006200019a62000212565b6001600160a01b0390811682526020808301939093526040909101600020805460ff191693151593909317909255600780546001600160a01b031990811687851617909155600680549091169285169290921790915581516200020491600591908401906200028b565b5050505062000344565b3390565b6000546001600160a01b031690565b82805482825590600052602060002090810192821562000279579160200282015b828111156200027957825182546001600160a01b0319166001600160a01b0390911617825560209092019160019091019062000242565b50620002879291506200030c565b5090565b828054600181600116156101000203166002900490600052602060002090601f016020900481019282601f10620002ce57805160ff1916838001178555620002fe565b82800160010185558215620002fe579182015b82811115620002fe578251825591602001919060010190620002e1565b50620002879291506200032d565b5b80821115620002875780546001600160a01b03191681556001016200030d565b5b808211156200028757600081556001016200032e565b610c9f80620003546000396000f3fe608060405234801561001057600080fd5b50600436106100ea5760003560e01c806359e02dd71161008c5780638da5cb5b116100665780638da5cb5b1461031e5780639b19251a14610342578063ba4e5c4914610368578063f2fde38b14610385576100ea565b806359e02dd7146102b65780636d028027146102be578063715018a614610316576100ea565b80633478d03a116100c85780633478d03a146101a557806339703c68146102485780633af32abf146102745780633c6bb436146102ae576100ea565b806306fdde03146100ef57806316ada5471461016c57806332145f9014610186575b600080fd5b6100f76103ab565b6040805160208082528351818301528351919283929083019185019080838360005b83811015610131578181015183820152602001610119565b50505050905090810190601f16801561015e5780820380516001836020036101000a031916815260200191505b509250505060405180910390f35b610174610439565b60408051918252519081900360200190f35b6101a36004803603602081101561019c57600080fd5b503561043f565b005b6101a3600480360360208110156101bb57600080fd5b8101906020810181356401000000008111156101d657600080fd5b8201836020820111156101e857600080fd5b8035906020019184602083028401116401000000008311171561020a57600080fd5b9190808060200260200160405190810160405280939291908181526020018383602002808284376000920191909152509295506106c9945050505050565b6101a36004803603604081101561025e57600080fd5b506001600160a01b03813516906020013561088d565b61029a6004803603602081101561028a57600080fd5b50356001600160a01b031661099a565b604080519115158252519081900360200190f35b6101746109b8565b6101746109be565b6102c66109c4565b60408051602080825283518183015283519192839290830191858101910280838360005b838110156103025781810151838201526020016102ea565b505050509050019250505060405180910390f35b6101a3610a26565b610326610ad2565b604080516001600160a01b039092168252519081900360200190f35b61029a6004803603602081101561035857600080fd5b50356001600160a01b0316610ae1565b6103266004803603602081101561037e57600080fd5b5035610af6565b6101a36004803603602081101561039b57600080fd5b50356001600160a01b0316610b1d565b6005805460408051602060026001851615610100026000190190941693909304601f810184900484028201840190925281815292918301828280156104315780601f1061040657610100808354040283529160200191610431565b820191906000526020600020905b81548152906001019060200180831161041457829003601f168201915b505050505081565b60045481565b6104483361099a565b61048c576040805162461bcd60e51b815260206004820152601060248201526f1b9bdd081a5b881dda1a5d195b1a5cdd60821b604482015290519081900360640190fd5b600760009054906101000a90046001600160a01b03166001600160a01b031663c2b6b58c6040518163ffffffff1660e01b815260040160206040518083038186803b1580156104da57600080fd5b505afa1580156104ee573d6000803e3d6000fd5b505050506040513d602081101561050457600080fd5b50511561054d576040805162461bcd60e51b815260206004820152601260248201527129bcb9ba32b69031b637b9b2b2103cb2ba1760711b604482015290519081900360640190fd5b60038190554260049081556006546040805163ab68bdb760e01b8152928301849052516001600160a01b039091169163ab68bdb7916024808301926020929190829003018186803b1580156105a157600080fd5b505afa1580156105b5573d6000803e3d6000fd5b505050506040513d60208110156105cb57600080fd5b50511561063f57600760009054906101000a90046001600160a01b03166001600160a01b031663fc0e74d16040518163ffffffff1660e01b8152600401600060405180830381600087803b15801561062257600080fd5b505af1158015610636573d6000803e3d6000fd5b50505050610683565b7fd43c12578a968ffd94dee5ea7925911b346fff65b3be20ee01eef9fdb4af8655600354600454604051808381526020018281526020019250505060405180910390a15b7fd43c12578a968ffd94dee5ea7925911b346fff65b3be20ee01eef9fdb4af8655600354600454604051808381526020018281526020019250505060405180910390a150565b6106d1610c1f565b6001600160a01b03166106e2610ad2565b6001600160a01b03161461072b576040805162461bcd60e51b81526020600482018190526024820152600080516020610c4a833981519152604482015290519081900360640190fd5b60005b8151811015610820576001600083838151811061074757fe5b6020908102919091018101516001600160a01b031682528101919091526040016000205460ff1615156001141561077d57600080fd5b600180600084848151811061078e57fe5b60200260200101516001600160a01b03166001600160a01b0316815260200190815260200160002060006101000a81548160ff02191690831515021790555060028282815181106107db57fe5b60209081029190910181015182546001808201855560009485529290932090920180546001600160a01b0319166001600160a01b03909316929092179091550161072e565b508060405180828051906020019060200280838360005b8381101561084f578181015183820152602001610837565b505060405194909201849003842095507fe3c5086a518f78e8aa61952bb9c28a9a0f0022707e537ea961faa918e0d89f6f945060009392505050a250565b610895610c1f565b6001600160a01b03166108a6610ad2565b6001600160a01b0316146108ef576040805162461bcd60e51b81526020600482018190526024820152600080516020610c4a833981519152604482015290519081900360640190fd5b600281815481106108fc57fe5b6000918252602090912001546001600160a01b0383811691161461091f57600080fd5b6001600160a01b0382166000908152600160205260409020805460ff19169055600280548290811061094d57fe5b6000918252602082200180546001600160a01b03191690556040516001600160a01b038416917fcdd2e9b91a56913d370075169cefa1602ba36be5301664f752192bb1709df75791a25050565b6001600160a01b031660009081526001602052604090205460ff1690565b60035481565b60035490565b60606002805480602002602001604051908101604052809291908181526020018280548015610a1c57602002820191906000526020600020905b81546001600160a01b031681526001909101906020018083116109fe575b5050505050905090565b610a2e610c1f565b6001600160a01b0316610a3f610ad2565b6001600160a01b031614610a88576040805162461bcd60e51b81526020600482018190526024820152600080516020610c4a833981519152604482015290519081900360640190fd5b600080546040516001600160a01b03909116907f8be0079c531659141344cd1fd0a4f28419497f9722a3daafe3b4186f6b6457e0908390a3600080546001600160a01b0319169055565b6000546001600160a01b031690565b60016020526000908152604090205460ff1681565b60028181548110610b0357fe5b6000918252602090912001546001600160a01b0316905081565b610b25610c1f565b6001600160a01b0316610b36610ad2565b6001600160a01b031614610b7f576040805162461bcd60e51b81526020600482018190526024820152600080516020610c4a833981519152604482015290519081900360640190fd5b6001600160a01b038116610bc45760405162461bcd60e51b8152600401808060200182810382526026815260200180610c246026913960400191505060405180910390fd5b600080546040516001600160a01b03808516939216917f8be0079c531659141344cd1fd0a4f28419497f9722a3daafe3b4186f6b6457e091a3600080546001600160a01b0319166001600160a01b0392909216919091179055565b339056fe4f776e61626c653a206e6577206f776e657220697320746865207a65726f20616464726573734f776e61626c653a2063616c6c6572206973206e6f7420746865206f776e6572a26469706673582212208e819845d670397db7b6585e731ba86f5da3991a78d14a59cb8a2b1aa43ef07364736f6c634300060c0033",
  "linkReferences": {},
  "deployedLinkReferences": {}
}