{
  "_format": "hh-sol-artifact-1",
  "contractName": "Dparam",
  "sourceName": "contracts/Dparam.sol",
  "abi": [
    {
      "inputs": [
        {
          "internalType": "uint256",
          "name": "_coin",
          "type": "uint256"
        },
        {
          "internalType": "uint256",
          "name": "_token",
          "type": "uint256"
        }
      ],
      "stateMutability": "nonpayable",
      "type": "constructor"
    },
    {
      "anonymous": false,
      "inputs": [
        {
          "indexed": true,
          "internalType": "address[]",
          "name": "accounts",
          "type": "address[]"
        }
      ],
      "name": "AddedToWhitelist",
      "type": "event"
    },
    {
      "anonymous": false,
      "inputs": [
        {
          "indexed": false,
          "internalType": "uint256",
          "name": "coinLowLimit",
          "type": "uint256"
        }
      ],
      "name": "CoinLowLimitEvent",
      "type": "event"
    },
    {
      "anonymous": false,
      "inputs": [
        {
          "indexed": false,
          "internalType": "uint256",
          "name": "coinUpperLimit",
          "type": "uint256"
        }
      ],
      "name": "CoinUpperLimitEvent",
      "type": "event"
    },
    {
      "anonymous": false,
      "inputs": [
        {
          "indexed": false,
          "internalType": "uint256",
          "name": "cost",
          "type": "uint256"
        },
        {
          "indexed": false,
          "internalType": "uint256",
          "name": "price",
          "type": "uint256"
        }
      ],
      "name": "CostEvent",
      "type": "event"
    },
    {
      "anonymous": false,
      "inputs": [
        {
          "indexed": false,
          "internalType": "uint256",
          "name": "feeRate",
          "type": "uint256"
        }
      ],
      "name": "FeeRateEvent",
      "type": "event"
    },
    {
      "anonymous": false,
      "inputs": [
        {
          "indexed": false,
          "internalType": "uint256",
          "name": "liquidationRate",
          "type": "uint256"
        }
      ],
      "name": "LiquidationLineEvent",
      "type": "event"
    },
    {
      "anonymous": false,
      "inputs": [
        {
          "indexed": false,
          "internalType": "uint256",
          "name": "minMint",
          "type": "uint256"
        }
      ],
      "name": "MinMintEvent",
      "type": "event"
    },
    {
      "anonymous": false,
      "inputs": [
        {
          "indexed": true,
          "internalType": "address",
          "name": "previousOwner",
          "type": "address"
        },
        {
          "indexed": true,
          "internalType": "address",
          "name": "newOwner",
          "type": "address"
        }
      ],
      "name": "OwnershipTransferred",
      "type": "event"
    },
    {
      "anonymous": false,
      "inputs": [
        {
          "indexed": true,
          "internalType": "address",
          "name": "account",
          "type": "address"
        }
      ],
      "name": "RemovedFromWhitelist",
      "type": "event"
    },
    {
      "anonymous": false,
      "inputs": [
        {
          "indexed": false,
          "internalType": "uint256",
          "name": "stakeRate",
          "type": "uint256"
        }
      ],
      "name": "StakeRateEvent",
      "type": "event"
    },
    {
      "inputs": [
        {
          "internalType": "address[]",
          "name": "_addresses",
          "type": "address[]"
        }
      ],
      "name": "addWhite",
      "outputs": [],
      "stateMutability": "nonpayable",
      "type": "function"
    },
    {
      "inputs": [],
      "name": "coinLowLimit",
      "outputs": [
        {
          "internalType": "uint256",
          "name": "",
          "type": "uint256"
        }
      ],
      "stateMutability": "view",
      "type": "function"
    },
    {
      "inputs": [],
      "name": "coinUpperLimit",
      "outputs": [
        {
          "internalType": "uint256",
          "name": "",
          "type": "uint256"
        }
      ],
      "stateMutability": "view",
      "type": "function"
    },
    {
      "inputs": [],
      "name": "cost",
      "outputs": [
        {
          "internalType": "uint256",
          "name": "",
          "type": "uint256"
        }
      ],
      "stateMutability": "view",
      "type": "function"
    },
    {
      "inputs": [],
      "name": "feeAddress",
      "outputs": [
        {
          "internalType": "address",
          "name": "",
          "type": "address"
        }
      ],
      "stateMutability": "view",
      "type": "function"
    },
    {
      "inputs": [],
      "name": "feeRate",
      "outputs": [
        {
          "internalType": "uint256",
          "name": "",
          "type": "uint256"
        }
      ],
      "stateMutability": "view",
      "type": "function"
    },
    {
      "inputs": [],
      "name": "getWhitelistedAddresses",
      "outputs": [
        {
          "internalType": "address[]",
          "name": "",
          "type": "address[]"
        }
      ],
      "stateMutability": "view",
      "type": "function"
    },
    {
      "inputs": [
        {
          "internalType": "uint256",
          "name": "price",
          "type": "uint256"
        }
      ],
      "name": "isLiquidation",
      "outputs": [
        {
          "internalType": "bool",
          "name": "",
          "type": "bool"
        }
      ],
      "stateMutability": "view",
      "type": "function"
    },
    {
      "inputs": [
        {
          "internalType": "uint256",
          "name": "totalCoin",
          "type": "uint256"
        }
      ],
      "name": "isLowestLimit",
      "outputs": [
        {
          "internalType": "bool",
          "name": "",
          "type": "bool"
        }
      ],
      "stateMutability": "view",
      "type": "function"
    },
    {
      "inputs": [
        {
          "internalType": "uint256",
          "name": "price",
          "type": "uint256"
        }
      ],
      "name": "isNormal",
      "outputs": [
        {
          "internalType": "bool",
          "name": "",
          "type": "bool"
        }
      ],
      "stateMutability": "view",
      "type": "function"
    },
    {
      "inputs": [
        {
          "internalType": "uint256",
          "name": "totalCoin",
          "type": "uint256"
        }
      ],
      "name": "isUpperLimit",
      "outputs": [
        {
          "internalType": "bool",
          "name": "",
          "type": "bool"
        }
      ],
      "stateMutability": "view",
      "type": "function"
    },
    {
      "inputs": [
        {
          "internalType": "address",
          "name": "_address",
          "type": "address"
        }
      ],
      "name": "isWhitelisted",
      "outputs": [
        {
          "internalType": "bool",
          "name": "",
          "type": "bool"
        }
      ],
      "stateMutability": "view",
      "type": "function"
    },
    {
      "inputs": [],
      "name": "liquidationLine",
      "outputs": [
        {
          "internalType": "uint256",
          "name": "",
          "type": "uint256"
        }
      ],
      "stateMutability": "view",
      "type": "function"
    },
    {
      "inputs": [],
      "name": "minMint",
      "outputs": [
        {
          "internalType": "uint256",
          "name": "",
          "type": "uint256"
        }
      ],
      "stateMutability": "view",
      "type": "function"
    },
    {
      "inputs": [],
      "name": "one_coin",
      "outputs": [
        {
          "internalType": "uint256",
          "name": "",
          "type": "uint256"
        }
      ],
      "stateMutability": "view",
      "type": "function"
    },
    {
      "inputs": [],
      "name": "one_token",
      "outputs": [
        {
          "internalType": "uint256",
          "name": "",
          "type": "uint256"
        }
      ],
      "stateMutability": "view",
      "type": "function"
    },
    {
      "inputs": [],
      "name": "owner",
      "outputs": [
        {
          "internalType": "address",
          "name": "",
          "type": "address"
        }
      ],
      "stateMutability": "view",
      "type": "function"
    },
    {
      "inputs": [
        {
          "internalType": "address",
          "name": "_address",
          "type": "address"
        },
        {
          "internalType": "uint256",
          "name": "_index",
          "type": "uint256"
        }
      ],
      "name": "removeWhite",
      "outputs": [],
      "stateMutability": "nonpayable",
      "type": "function"
    },
    {
      "inputs": [],
      "name": "renounceOwnership",
      "outputs": [],
      "stateMutability": "nonpayable",
      "type": "function"
    },
    {
      "inputs": [
        {
          "internalType": "uint256",
          "name": "_coinLowLimit",
          "type": "uint256"
        }
      ],
      "name": "setCoinLowLimit",
      "outputs": [],
      "stateMutability": "nonpayable",
      "type": "function"
    },
    {
      "inputs": [
        {
          "internalType": "uint256",
          "name": "_coinUpperLimit",
          "type": "uint256"
        }
      ],
      "name": "setCoinUpperLimit",
      "outputs": [],
      "stateMutability": "nonpayable",
      "type": "function"
    },
    {
      "inputs": [
        {
          "internalType": "uint256",
          "name": "_cost",
          "type": "uint256"
        },
        {
          "internalType": "uint256",
          "name": "price",
          "type": "uint256"
        }
      ],
      "name": "setCost",
      "outputs": [],
      "stateMutability": "nonpayable",
      "type": "function"
    },
    {
      "inputs": [
        {
          "internalType": "address",
          "name": "_feeAddress",
          "type": "address"
        }
      ],
      "name": "setFeeAddress",
      "outputs": [],
      "stateMutability": "nonpayable",
      "type": "function"
    },
    {
      "inputs": [
        {
          "internalType": "uint256",
          "name": "_feeRate",
          "type": "uint256"
        }
      ],
      "name": "setFeeRate",
      "outputs": [],
      "stateMutability": "nonpayable",
      "type": "function"
    },
    {
      "inputs": [
        {
          "internalType": "uint256",
          "name": "_liquidationLine",
          "type": "uint256"
        }
      ],
      "name": "setLiquidationLine",
      "outputs": [],
      "stateMutability": "nonpayable",
      "type": "function"
    },
    {
      "inputs": [
        {
          "internalType": "uint256",
          "name": "_minMint",
          "type": "uint256"
        }
      ],
      "name": "setMinMint",
      "outputs": [],
      "stateMutability": "nonpayable",
      "type": "function"
    },
    {
      "inputs": [
        {
          "internalType": "uint256",
          "name": "price",
          "type": "uint256"
        }
      ],
      "name": "setStakeRate",
      "outputs": [],
      "stateMutability": "nonpayable",
      "type": "function"
    },
    {
      "inputs": [],
      "name": "stakeRate",
      "outputs": [
        {
          "internalType": "uint256",
          "name": "",
          "type": "uint256"
        }
      ],
      "stateMutability": "view",
      "type": "function"
    },
    {
      "inputs": [
        {
          "internalType": "address",
          "name": "newOwner",
          "type": "address"
        }
      ],
      "name": "transferOwnership",
      "outputs": [],
      "stateMutability": "nonpayable",
      "type": "function"
    },
    {
      "inputs": [
        {
          "internalType": "address",
          "name": "",
          "type": "address"
        }
      ],
      "name": "whitelist",
      "outputs": [
        {
          "internalType": "bool",
          "name": "",
          "type": "bool"
        }
      ],
      "stateMutability": "view",
      "type": "function"
    },
    {
      "inputs": [
        {
          "internalType": "uint256",
          "name": "",
          "type": "uint256"
        }
      ],
      "name": "whitelistedAddresses",
      "outputs": [
        {
          "internalType": "address",
          "name": "",
          "type": "address"
        }
      ],
      "stateMutability": "view",
      "type": "function"
    }
  ],
  "bytecode": "0x608060405260fa60039081556096600455600555600680546001600160a01b031916731111111111111111111111111111111111111111179055620f42406007908155670de0b6b3a76400006008556305f5e10060098190556402540be400600a55600b55600c553480156200007457600080fd5b50604051620013a5380380620013a5833981810160405260408110156200009a57600080fd5b5080516020909101516000620000af62000176565b600080546001600160a01b0319166001600160a01b0383169081178255604051929350917f8be0079c531659141344cd1fd0a4f28419497f9722a3daafe3b4186f6b6457e0908290a3506040518060200160405280620001146200017a60201b60201c565b6001600160a01b031690526200012f90600290600162000189565b5060018060006200013f6200017a565b6001600160a01b031681526020810191909152604001600020805460ff191691151591909117905560079190915560085562000214565b3390565b6000546001600160a01b031690565b828054828255906000526020600020908101928215620001e1579160200282015b82811115620001e157825182546001600160a01b0319166001600160a01b03909116178255602090920191600190910190620001aa565b50620001ef929150620001f3565b5090565b5b80821115620001ef5780546001600160a01b0319168155600101620001f4565b61118180620002246000396000f3fe608060405234801561001057600080fd5b50600436106101e55760003560e01c8063715018a61161010f57806396223235116100a2578063b7126e7711610071578063b7126e7714610532578063ba4e5c491461054f578063ed910b931461056c578063f2fde38b14610589576101e5565b806396223235146104df578063978bbdb9146104e75780639b19251a146104ef578063ab68bdb714610515576101e5565b80638157ba9d116100de5780638157ba9d146104a15780638376112a146104a95780638705fcd4146104b15780638da5cb5b146104d7576101e5565b8063715018a6146104515780637696e088146104595780637d461a371461047c57806381160fe314610499576101e5565b806339703c68116101875780634693b9f9116101565780634693b9f9146103b75780634bf404ec146103bf578063615bae93146103dc5780636d028027146103f9576101e5565b806339703c68146103245780633af32abf14610350578063412753581461037657806345596e2e1461039a576101e5565b806324839dac116101c357806324839dac1461024057806325d9ef78146102485780633478d03a1461027957806335c2ee2d1461031c576101e5565b80630932f3ac146101ea57806313faede6146102095780631bd6626614610223575b600080fd5b6102076004803603602081101561020057600080fd5b50356105af565b005b610211610657565b60408051918252519081900360200190f35b6102076004803603602081101561023957600080fd5b503561065d565b6102116106e5565b6102656004803603602081101561025e57600080fd5b50356106eb565b604080519115158252519081900360200190f35b6102076004803603602081101561028f57600080fd5b8101906020810181356401000000008111156102aa57600080fd5b8201836020820111156102bc57600080fd5b803590602001918460208302840111640100000000831117156102de57600080fd5b9190808060200260200160405190810160405280939291908181526020018383602002808284376000920191909152509295506106f3945050505050565b6102116108b7565b6102076004803603604081101561033a57600080fd5b506001600160a01b0381351690602001356108bd565b6102656004803603602081101561036657600080fd5b50356001600160a01b03166109ca565b61037e6109e8565b604080516001600160a01b039092168252519081900360200190f35b610207600480360360208110156103b057600080fd5b50356109f7565b610211610a7f565b610265600480360360208110156103d557600080fd5b5035610a85565b610207600480360360208110156103f257600080fd5b5035610ab4565b610401610b3c565b60408051602080825283518183015283519192839290830191858101910280838360005b8381101561043d578181015183820152602001610425565b505050509050019250505060405180910390f35b610207610b9e565b6102076004803603604081101561046f57600080fd5b5080359060200135610c4a565b6102656004803603602081101561049257600080fd5b5035610cf4565b610211610cfc565b610211610d02565b610211610d08565b610207600480360360208110156104c757600080fd5b50356001600160a01b0316610d0e565b61037e610d7d565b610211610d8c565b610211610d92565b6102656004803603602081101561050557600080fd5b50356001600160a01b0316610d98565b6102656004803603602081101561052b57600080fd5b5035610dad565b6102076004803603602081101561054857600080fd5b5035610dde565b61037e6004803603602081101561056557600080fd5b5035610e66565b6102076004803603602081101561058257600080fd5b5035610e8d565b6102076004803603602081101561059f57600080fd5b50356001600160a01b0316610f15565b6105b8336109ca565b6105fc576040805162461bcd60e51b815260206004820152601060248201526f1b9bdd081a5b881dda1a5d195b1a5cdd60821b604482015290519081900360640190fd5b61061d81610617600754600c5461101790919063ffffffff16565b90611079565b600381905560408051918252517fd92dbb82182a274377137ee228a092b271f2eaff820fe07fcea3b744660e09419181900360200190a150565b600c5481565b610666336109ca565b6106aa576040805162461bcd60e51b815260206004820152601060248201526f1b9bdd081a5b881dda1a5d195b1a5cdd60821b604482015290519081900360640190fd5b600b8190556040805182815290517fa55fbf54a2eed232f91922b0d9f1108ca3cf67eaf81c9fee93fde3d5db4bf4d19181900360200190a150565b600b5481565b600a54101590565b6106fb6110e0565b6001600160a01b031661070c610d7d565b6001600160a01b031614610755576040805162461bcd60e51b8152602060048201819052602482015260008051602061112c833981519152604482015290519081900360640190fd5b60005b815181101561084a576001600083838151811061077157fe5b6020908102919091018101516001600160a01b031682528101919091526040016000205460ff161515600114156107a757600080fd5b60018060008484815181106107b857fe5b60200260200101516001600160a01b03166001600160a01b0316815260200190815260200160002060006101000a81548160ff021916908315150217905550600282828151811061080557fe5b60209081029190910181015182546001808201855560009485529290932090920180546001600160a01b0319166001600160a01b039093169290921790915501610758565b508060405180828051906020019060200280838360005b83811015610879578181015183820152602001610861565b505060405194909201849003842095507fe3c5086a518f78e8aa61952bb9c28a9a0f0022707e537ea961faa918e0d89f6f945060009392505050a250565b60085481565b6108c56110e0565b6001600160a01b03166108d6610d7d565b6001600160a01b03161461091f576040805162461bcd60e51b8152602060048201819052602482015260008051602061112c833981519152604482015290519081900360640190fd5b6002818154811061092c57fe5b6000918252602090912001546001600160a01b0383811691161461094f57600080fd5b6001600160a01b0382166000908152600160205260409020805460ff19169055600280548290811061097d57fe5b6000918252602082200180546001600160a01b03191690556040516001600160a01b038416917fcdd2e9b91a56913d370075169cefa1602ba36be5301664f752192bb1709df75791a25050565b6001600160a01b031660009081526001602052604090205460ff1690565b6006546001600160a01b031681565b610a00336109ca565b610a44576040805162461bcd60e51b815260206004820152601060248201526f1b9bdd081a5b881dda1a5d195b1a5cdd60821b604482015290519081900360640190fd5b60058190556040805182815290517f8d05d9089d0aad89db789d500081078a48e8b6d79cf7d6370d29678a6d6650eb9181900360200190a150565b60045481565b6000610a9e600c5460075461101790919063ffffffff16565b600354610aac908490611017565b101592915050565b610abd336109ca565b610b01576040805162461bcd60e51b815260206004820152601060248201526f1b9bdd081a5b881dda1a5d195b1a5cdd60821b604482015290519081900360640190fd5b60048190556040805182815290517f6c68c56a1fd8fc1b5dff20eb2f86be2c4af805f62e7961f2687b91ce4a1c2fb29181900360200190a150565b60606002805480602002602001604051908101604052809291908181526020018280548015610b9457602002820191906000526020600020905b81546001600160a01b03168152600190910190602001808311610b76575b5050505050905090565b610ba66110e0565b6001600160a01b0316610bb7610d7d565b6001600160a01b031614610c00576040805162461bcd60e51b8152602060048201819052602482015260008051602061112c833981519152604482015290519081900360640190fd5b600080546040516001600160a01b03909116907f8be0079c531659141344cd1fd0a4f28419497f9722a3daafe3b4186f6b6457e0908390a3600080546001600160a01b0319169055565b610c53336109ca565b610c97576040805162461bcd60e51b815260206004820152601060248201526f1b9bdd081a5b881dda1a5d195b1a5cdd60821b604482015290519081900360640190fd5b600c829055600754610cb0908290610617908590611017565b600355600c54604080519182526020820183905280517fedeca4525951b61507d9d055b2c62802fd9fc28417f03b7e09709e120e5b15079281900390910190a15050565b600b54111590565b60035481565b600a5481565b60095481565b610d17336109ca565b610d5b576040805162461bcd60e51b815260206004820152601060248201526f1b9bdd081a5b881dda1a5d195b1a5cdd60821b604482015290519081900360640190fd5b600680546001600160a01b0319166001600160a01b0392909216919091179055565b6000546001600160a01b031690565b60075481565b60055481565b60016020526000908152604090205460ff1681565b600060075460045402610dd66064610dd06003548661101790919063ffffffff16565b90611017565b111592915050565b610de7336109ca565b610e2b576040805162461bcd60e51b815260206004820152601060248201526f1b9bdd081a5b881dda1a5d195b1a5cdd60821b604482015290519081900360640190fd5b60098190556040805182815290517f976eb1a39c974c55d42ed0f8a5fe7ae07dc78c53aadad39792215eda969817489181900360200190a150565b60028181548110610e7357fe5b6000918252602090912001546001600160a01b0316905081565b610e96336109ca565b610eda576040805162461bcd60e51b815260206004820152601060248201526f1b9bdd081a5b881dda1a5d195b1a5cdd60821b604482015290519081900360640190fd5b600a8190556040805182815290517f79e368f548ec3fecfcb22f97376f74dac73933f76039ed71092312580ae417d39181900360200190a150565b610f1d6110e0565b6001600160a01b0316610f2e610d7d565b6001600160a01b031614610f77576040805162461bcd60e51b8152602060048201819052602482015260008051602061112c833981519152604482015290519081900360640190fd5b6001600160a01b038116610fbc5760405162461bcd60e51b81526004018080602001828103825260268152602001806110e56026913960400191505060405180910390fd5b600080546040516001600160a01b03808516939216917f8be0079c531659141344cd1fd0a4f28419497f9722a3daafe3b4186f6b6457e091a3600080546001600160a01b0319166001600160a01b0392909216919091179055565b60008261102657506000611073565b8282028284828161103357fe5b04146110705760405162461bcd60e51b815260040180806020018281038252602181526020018061110b6021913960400191505060405180910390fd5b90505b92915050565b60008082116110cf576040805162461bcd60e51b815260206004820152601a60248201527f536166654d6174683a206469766973696f6e206279207a65726f000000000000604482015290519081900360640190fd5b8183816110d857fe5b049392505050565b339056fe4f776e61626c653a206e6577206f776e657220697320746865207a65726f2061646472657373536166654d6174683a206d756c7469706c69636174696f6e206f766572666c6f774f776e61626c653a2063616c6c6572206973206e6f7420746865206f776e6572a264697066735822122060880989af07410061cb2d436ed82d8fdf64292635e56ec4ce672b4d00e883b764736f6c634300060c0033",
  "linkReferences": {},
  "deployedLinkReferences": {}
}